:10000000309801203D330000538200009D330000F2
:100010009D3300009D3300009D3300009D330000A0
:100020000000000000000000000000008D30000013
:100030009D33000000000000F92F0000737D0000D8
:10004000FD320000FD320000FD320000FD320000F4
:10005000FD320000FD320000FD320000FD320000E4
:10006000FD320000FD320000FD320000FD320000D4
:10007000FD320000FD320000FD320000FD320000C4
:10008000FD320000FD320000FD320000FD320000B4
:10009000FD320000FD320000FD320000FD320000A4
:1000A000FD320000FD320000FD320000FD32000094
:1000B000FD320000FD320000FD320000FD32000084
:1000C000FD320000FD320000FD320000FD32000074
:1000D000FD320000FD320000FD320000FD32000064
:1000E000FD320000FD320000FD320000FD32000054
:1000F000FD320000FD320000FD320000FD32000044
:10010000FD320000FD320000FD320000FD32000033
:10011000FD320000FD320000FD320000FD32000023
:10012000FD320000FD320000FD320000FD32000013
:10013000FD320000FD320000FD320000FD32000003
:04014000FD3200008C
:1001440053B94AB9002908BF00281CBF4FF0FF313A
:100154004FF0FF3000F00CB8ADF1080C6DE904CE9F
:1001640000F008F8DDF804E0DDE9022304B070478C
:10017400704700BF2DE9F04786468C460846089E26
:10018400154674461946002B40F0C1808542B2FAE8
:1001940082F245D94AB1C2F1200300FA02FC95402B
:1001A40094402EFA03F343EA0C0C4FEA154EA8B21E
:1001B400230CBCFBFEF80EFB18CC08FB00F943EA49
:1001C4000C43994528D9EB1808F1FF3704D2994517
:1001D40002D9A8F102072B44A3EB0903A4B2B3FB91
:1001E400FEFC0EFB1C330CFB00F044EA0344A0426B
:1001F40014D92C190CF1FF3304D2A04202D9ACF16A
:1002040002032C44241A43EA07401EB1D4400023BD
:1002140034607360BDE8F0874746DDE76346F1E785
:1002240092BB431B01214FEA154EAFB2200CB3FB26
:10023400FEFC0EFB1C330CFB07F840EA0343984515
:1002440061D9EB180CF1FF3004D2984502D9ACF116
:1002540002002B44A3EB0803A4B2B3FBFEFC0EFB89
:100264001C330CFB07F744EA0344A7424DD92C196D
:100274000CF1FF3304D2A74202D9ACF102032C449F
:10028400E41B43EA0040C0E7C2F1200395409440D8
:1002940020FA03F12EFA03F34FEA154E9040AFB261
:1002A4000343B1FBFEFC0EFB1C10190C0CFB07F8FE
:1002B40041EA0041884522D969180CF1FF3004D283
:1002C400884502D9ACF102002944A1EB08019BB294
:1002D400B1FBFEFC0EFB1C110CFB07F743EA0143C8
:1002E4009F420ED9EB180CF1FF3104D29F4202D980
:1002F400ACF102012B44DB1B41EA004193E7604669
:10030400E3E76146F7E76046A4E76346B8E783425C
:1003140006D916B9002108467CE7C6E900E0F9E7EA
:10032400B3FA83F78FB9834201D3724508D8BEEB81
:10033400020460EB030301209C461EB9002169E717
:100344003846FAE7C6E9004CF8E7C7F1200CBB4091
:100354000EFA07F522FA0CF42EFA0CF1BA401C43FB
:1003640020FA0CF3B8404FEA144901431FFA84FE03
:10037400B3FBF9F809FB18300B0C08FB0EFA43EA3F
:1003840000439A4540D9E31808F1FF3004D29A4556
:1003940002D9A8F102002344A3EB0A0389B2B3FBF8
:1003A400F9F809FB183308FB0EFE41EA03418E45B8
:1003B4002CD9611808F1FF3304D28E4502D9A8F173
:1003C4000203214443EA0040A1EB0E01A0FB029882
:1003D4004145CE46434602D306D14D4504D20138A9
:1003E400B9EB020E68EB0403002EA7D0B5EB0E02A6
:1003F40061EB030101FA0CFC22FA07F3F9404CEA21
:100404000303C6E9003199E74046C5E74346D9E707
:1004140010B50F4804F012FB0E4C206030B9BDE853
:10042400104045210A4A0C4807F04CBB0269816818
:10043400136843F0080313600B6840F201220321A0
:10044400984720680021BDE8104006F099BE00BF1F
:1004540098940000F04701209F9400002DE9FF418B
:100464005E4B5F4A5F48C3F800264921C3F804265F
:10047400C3F80826C3F80C26C3F81026C3F81426BC
:10048400C3F81826C3F81C2607F01CFBFFF7C0FFAF
:1004940006F08DFE544800F0BFF828B94521524AB1
:1004A400524807F00FFBFEE7514804F0C7FA05462F
:1004B40002698168136823F4805313600B684FF456
:1004C40088720C2198470C21284606F048FE002823
:1004D40042D1002140F2676005F098F84FF47A7732
:1004E40008F0E4FB3E46A0FB070307FB0133C40B03
:1004F40044EA43440C21284606F031FE804608F0C5
:10050400D5FBA0FB063207FB0122DB0B43EA424387
:100514001B1BB3F5E17F07D2B8F1000F1CD10021FA
:10052400212005F073F8E5E7B8F1000F14D14FF07E
:100534005023D3F800340BB1DB070DD52D4B01212B
:10054400186806F01DFE49212B4807F0BBFA02F09B
:10055400E9F82A4802F04EFC01A800F083FC284B7D
:100564001B68834204D04521264807F0ABFAFEE716
:100574004921039A244807F0A5FA4921234807F0A2
:10058400A1FA4FF48031002003F086FF20B1452109
:100594001F4807F097FAFEE769469DF8080000F047
:1005A40047F8009B039C1C44019B1D8907F0E1FB59
:1005B400661900F02FFF4FF02002EFF3118382F34E
:1005C4001188BFF36F8F635983F308887368984762
:1005D4004521104807F076FAFEE700BF008001507D
:1005E4003546526EBF940000D8940000EB9400008E
:1005F40098940000F04701200A950000E89000005C
:10060400F84701202E9500005195000080950000C8
:10061400A5950000D895000010B5044C236813B9C3
:1006240004F00CFA2060206810BD00BFF4470120DC
:10063400024608B538B105480023452107F042FABF
:100644006FF0150008BD0860FCE700BFFB950000D3
:100654001FB5074A03460C461068194601AA07F05D
:10066400E8FE18B9019B2360029B636004B010BDCF
:10067400F44701202DE9F04F1E46824BDBB01446AF
:10068400DDE96657D3F80080DDF8A0B100F08CFEF8
:1006940001227D4B3AA8C3F8002505F099FC35B139
:1006A400002F04DD3A4629463AA807F0C8F84FF06F
:1006B4000009638927891F44E3681F444F454FD8C5
:1006C4000DA93AA805F0F6FC00226F4BC3F80025EB
:1006D400C3F80025BBF1000F04D0202258460DA911
:1006E40007F0FFFD00233246009321464FF6FF73C7
:1006F40007A806F05DFD0546002843D14FF0FF37FB
:10070400DFF890B1DFF880910DF1160305AA06A970
:1007140007A806F099FD041EC0F2B18040F0A18044
:10072400BDF816A0BAF1100F37D1BDF81450202D22
:1007340040F0A1802B46304606993AAA07F0F2F918
:100744000446002840F09B802A463AA90DA806F0EA
:10075400F2FD05464D4B1B68834213D10125D3E7B7
:10076400659BA7EB090A9A4528BF9A464946534612
:100774003046649A07F0D6F9054638B10022424B58
:10078400C3F8002528465BB0BDE8F08F5246649953
:100794003AA807F054F8D14490E7BAF1010F3ED1DA
:1007A400BDF81430202B66D8304606993AAA07F0D3
:1007B400B9F90446002862D19DF81430202B029325
:1007C40009D8DBF80030324F0393039B9C4205DBCE
:1007D4000023C9F800354FF0FF341CE000F0E4FDBD
:1007E400C9F800A51DA805F0F3FB7A681DA81268D6
:1007F40057F8081B07F023F815A91DA805F05AFCA3
:1008040000223AA9C9F8002515A8029A07F042FD6A
:1008140018B9C9F80005274676E70134D5E7BAF1D7
:10082400220F7FF471AF002F18DBDBF80030BB42DE
:1008340014DDBDF81430802B1DD8304606993AAA31
:1008440007F070F90446D0B9FFB22021BDF8143086
:1008540000973AAA0DA800F01FF880464FF0FF3722
:1008640052E75DB1094B1B68434502D0054BD3F8F1
:100874000080454686E74FF0FF3583E7012425468F
:1008840080E700BF0045012000008450F8470120A4
:10089400F4900000F09000002DE9F04196B0174666
:1008A4001D469DF87020354B0E4653F8321003EB6D
:1008B400C2035B688046186801913023014402AA90
:1008C40001A806F04AFF20B14FF0FF3016B0BDE892
:1008D400F081DDE901431C44214606AB03AA01A8CB
:1008E40006F063FF0028EFD1049A072AECD12449CB
:1008F400059807F0CFFC0028E6D1079A082AE3D12F
:100904002049089807F0C6FC0028DDD1214602AA38
:1009140001A806F036FF0028D6D1DDE901321344E0
:100924009C42D1D1412ACFD13D443023294603AA48
:1009340002A8029706F011FF0028C5D1DDE90232B2
:1009440013449D42C0D32A4602A906A806F0C7FC58
:100954000028B9D12A4602A90EA806F0C0FC002836
:10096400B2D1202EB0D101990B78042BACD13346EF
:10097400404606AA013100F02FFDA7E7F4900000DD
:100984002A960000219600002DE9F041052386B047
:100994000D466F460026DFF86C80ADF8003017F87E
:1009A400010B01A901F030FA0446D8B901981023CB
:1009B400816802AA103907F0B5F8044628B10198F5
:1009C40007F0AFF80EE00126E9E71022414602A83D
:1009D40007F060FC50B1019807F0A3F8002EF2D0A4
:1009E4004FF0FF34204606B0BDE8F081019807F0CF
:1009F400CFFE0423A0F108012A46019807F092F8DB
:100A04000446DCE7E89200002DE9F041354B88B05C
:100A1400064600200C461D6806F0C0FB06A9C0B2BD
:100A240001F0F2F9002857D1214606F0B7FB2C2536
:100A340007A9C0B205FB046501F0E6F9002833D02C
:100A44002C27674306EB0708D8F81010069B11F013
:100A5400100138D14FF480720192234A0846009263
:100A6400CDE903112A460291FFF704FE05461F4B08
:100A7400F25906989A420CD1D8F80C20B8F80830EC
:100A84009B1806D28268934203D2194B1B68AB426F
:100A94001FD02CB38268002107F093F8154A452132
:100AA400154807F00FF813E0079807F0C2F8074657
:100AB400079807F036F86B1EEA1C13F8011FB942B9
:100AC400BED19342F9D11CB13046069906F029FDF6
:100AD4000125069807F025F8284608B0BDE8F081FE
:100AE400064ADCE7004501206A6701203DB8F39619
:100AF400F84701203A960000449600003296000020
:100B040073B50D46002104462846CDE9001106F0D0
:100B1400C7FC30B3164E2368B34203D1204601AA62
:100B240006F052FCE36AB34204D16A46012120462E
:100B340006F04AFCDDE90032934288BF0193019B31
:100B4400AB60019A2946204600F030FB094B1A6835
:100B5400002A03DD5721084806F0B4FF002002B044
:100B640070BD05F10801FFF70FFFAB680193E8E7DB
:100B74003DB8F3965C5C01206C9600002DE9F84FBB
:100B8400884691469A460026DFF870B0194C1A4DF3
:100B94000B9B9E4201D300200FE00B9B40469F1B02
:100BA400B7F5806F28BF4FF48067144A3B4606EBC5
:100BB4000A0106F0B7FF10B10120BDE8F88F0A99C9
:100BC4003B465A464846711806F0C8FF0028F3D140
:100BD400C4F800563E44C4F80456C4F80856C4F891
:100BE4000C56C4F81056C4F81456C4F81856C4F871
:100BF4001C56CDE7008001503546526EFC5701204B
:100C04002DE9FF41044660220E46002107F074FBE3
:100C140000218D4B084663628C4B236506F0BEFAB7
:100C240004F12001C0B201F0EFF80121002006F028
:100C3400B5FA04F14C01C0B201F0E6F805462046CD
:100C440006F003FC074668B900222046114606F068
:100C5400A5FB074608B3002257217D4806F032FF62
:100C6400012390E04FF4807257217A4806F02AFF5E
:100C740001239F4284F85830E6D194F85830042B6D
:100C84008DF8073000F28280012B00F2858000F09D
:100C94009C80FF2384F8583097E0204600F09CF9AC
:100CA4000028DDD0684606F0F2FB6946204606F0CF
:100CB4008DFC18B13A4657216748CFE7684606F0DD
:100CC400EFFB80F001016A462046C9B206F066FBDC
:100CD40002460028BFD1684606F0E2FB074660BB27
:100CE40069462046FFF70CFF9DF8073084F858301A
:100CF400033B012B06D8384606F0B6FC10B1FF239F
:100D040084F858309DF80730023B022B0BD80020A2
:100D140006F098FC38B1FF2384F8583045214F4839
:100D240006F0D0FEFEE794F85830FF2BF6D06A4662
:100D34000021204606F032FB92E79DF80780B8F1C7
:100D4400010F15D1104603F02DFC831E022B07461C
:100D54000BD841462046FFF757FE414B1B6898428B
:100D640003D0012814BF0527012784F8587084E7AD
:100D740001212046FFF748FE394B1B68984214BFF7
:100D840005239DF8073084F8583076E7052B80D189
:100D9400002006F069FC13E069462046FFF7B0FE28
:100DA40094F858300546DA1E012A0CD8002006F0C3
:100DB4005BFC054600287FF46CAF002006F042FC83
:100DC400054610B165E7022BF7D094F85830FF2B95
:100DD40004D14521214806F075FEFEE7012B10D011
:100DE4006A460021204606F0D9FA054648B1E06C6F
:100DF40006F097FE206A06F094FE284604B0BDE88B
:100E0400F08100212046FFF7FFFD0746DFF8508000
:100E1400D8F8003098420DD110220021684607F01E
:100E24006BFA236AD8F800505A7832715B683460E0
:100E3400B360DCE7E06C06F074FE206A06F071FE35
:100E4400002D08BF3D46D8E7FC4F0120FC47012098
:100E5400DD9600009B960000099700003397000080
:100E6400F847012008B501460148FFF7C9FE08BD4F
:100E7400FC5B012073B516461D4643B15B79012B1B
:100E840007D121B9204B2A681B689A4217D800243D
:100E940018E0022BFBD12B68012B07D91A4A1268E0
:100EA4009342F4D8B1FA81F14909F0E7EFD131B1B5
:100EB4000129ECD12979023918BF0121E7E7002182
:100EC400436A5C68002006F069F901A9C0B200F029
:100ED4009BFF30B10124019806F023FE204602B0A6
:100EE40070BD214620233246019806F01BFE0446BD
:100EF4000028EFD1002DEED03468044BE41A18BF5B
:100F04004FF0FF34E7E700BF044501203DB8F396F6
:100F14002DE9F04F07460C4685B0014600201646E1
:100F240006F010FA051E51DB3846E46D06F017FA98
:100F34005FFA84F94FF0000A4FF0010B4FF0FF34D1
:100F44006B1E09FB03089DB9BAF1010F03DD4521AE
:100F5400204806F0B7FD631C06D0FF2C2ADC40F2C3
:100F6400011301343460B380284605B0BDE8F08F26
:100F74006B1E00934146012338460DF10F0206F023
:100F8400D1FD031E019323DB012238460DF10F012D
:100F940007F00FFC019B40B15B4501D00AF1010A47
:100FA4009B46009DA8EB0908CDE7B4F1FF3F08BFBD
:100FB4002C46F5E70223A4F580747371631004F0E2
:100FC40001040133013433603471CDE70725CBE7E5
:100FD4000125C9E73F970000816A426D38B58A420E
:100FE40008D0531C8B4205D05721144806F06AFDE3
:100FF400002038BDB1F5807F1CD957211048F5E792
:10100400446A056D04EBC30405EBC30564686D68AD
:10101400A54202D057210B48E8E701339A42EFD1A9
:10102400914205D9436A03EBC2035B68A342F1D141
:101034000120DEE700231C46F0E700BF62970000B2
:101044009A970000C997000000B589B0052004A94B
:1010540007F01EFC9DF81020012A41D0254B26499B
:10106400032A08BF0B469DF81320492102929DF8DC
:101074001220224801929DF811200092204A06F085
:1010840021FD022006A907F003FC9DF81820012A7F
:1010940028D0184B1849032A08BF0B469DF81B207B
:1010A400492102929DF81A20144801929DF81920B2
:1010B4000092144A06F006FD9DF81030012B13D15E
:1010C4009DF81230032B0FD19DF81830012B0BD053
:1010D4000D48492106F0F6FC022009B05DF804FB36
:1010E4000A4BC0E7094BD9E70948492106F0EAFC55
:1010F4000020F2E7F5970000FE9700001298000028
:10110400049800005398000063980000F9970000C9
:101114008298000070B54B6814461E4A03F0FF2302
:10112400934206460D4686B02FD10B68012B2CD175
:10113400204604A903F0E6F99DF81020012A26D0E0
:10114400154B1649032A08BF0B469DF81320492165
:1011540002929DF81220124801929DF811200092EB
:10116400104A06F0AFFC9DF81030032B0DD1214638
:10117400304606F0D6F9204607F081FB2046A968E0
:1011840006F0FDF8204603F0AFF906B070BD064B3B
:10119400DBE700BF00010004F5970000FE970000A4
:1011A4001298000053980000F9970000436A2DE953
:1011B400F04F0C465E6805460121002389B0334494
:1011C4009A42084601F10101F9D8DFF8C881C8F84C
:1011D4000000204606F064F9B8B1E86D06F0ADF8F9
:1011E4000022AB6A013B3244824201D2013BFAE75E
:1011F400D8F800209A4208D35721644806F062FCCC
:101204000123E37109B0BDE8F08F06A9052000F0C1
:10121400FBFD07A9022000F0F7FD21462846079AA6
:10122400FFF778FF6379012B0AD1D8F80070DFF853
:1012340060B1D8F80030DDF818908FB9012323602D
:10124400022301276371D8F80030DDF818A09F420B
:1012540048D9504606F065FC079806F062FCD1E7D1
:10126400226801339B1A9F423AD86B6A012A196893
:1012740053F8370003EBC70353F8083CA0EB010A0B
:10128400A3EB0103049311D1079B0393E368022B9F
:1012940008D04946284606F044F9224649462846DD
:1012A40006F075F92846039906F03BF93246514693
:1012B400484606F034F9049B4A4649462846CDE997
:1012C40000A6FFF75BFC2146284606F0F6F82368E3
:1012D4000133236020B1DBF800300133CBF8003058
:1012E400013FA6E723689F424DD36A6AFB0052F888
:1012F4003710083B04911168DDF81CB00391D158F4
:101304002A6DD0581368A0EB03092379012B38D137
:10131400039B3246C91A5046059106F000F9059917
:101324004B4652460091284659460196FFF726FC43
:101334002146284606F0C1F80223237118B1144A45
:1013440013680133136032464946584606F0E7F8FD
:10135400DDE9032351469B1A28465A46CDE90096F7
:10136400FFF70CFC2146284606F0A7F82368013352
:1013740023600123237130B1054A136801331360DC
:1013840001E0022BDFD001375DE700BF9998000030
:101394005C5C012004450120024B0A461B680021C5
:1013A400184700BF0845012070B5094D2B780BB1D3
:1013B400002070BD0126074CC4F8006504F0AAFEA5
:1013C40018B92E70C4F80005F2E74FF0FF30F0E7CB
:1013D4006A680120000084502DE9F041ACB01F463A
:1013E40006460C461546FFF7DFFF0123DFF8208091
:1013F4002A46C8F8003521463346009703A807F06B
:101404005CFC0023C8F800352CB0BDE8F08100BFB7
:10141400000084504FF0FF3301210F4A5160C2F89D
:101424004833C2F8083302F5805251600021C2F8F3
:101434004833C2F80833A2F55042C2F80015C2F886
:10144400083302F58052C2F80015C2F808334FF091
:101454005022C2F808337047004001502DE9F04390
:10146400079D15B91560002012E00324B5FBF4F4C0
:1014740004EB4407BD4218BF0134B4F1804F09D2D4
:10148400A40001348C4200D838B96FF00B0014600A
:10149400BDE8F0834FF0FF34F7E704460021DFF89E
:1014A400B4E0B94203F1030C04F104062BD3A942BE
:1014B400274623D201F1010CAC451F7828BF002335
:1014C40024494FEAA70E38BF5B7811F80EE0AC450B
:1014D40084F800E001EB131E2EBF3D239B0003F0B4
:1014E4003C034FEA071738BFCB5C07F030071EF800
:1014F4000770A3703D2367703746E3700023381AE2
:1015040010603B70AFE71CF8034C1CF8023C4FEA38
:10151400A4091EF8099024011CF8018C04F030047D
:1015240006F8049C0EEB131919F804409B0006F806
:10153400034C03F03C030EEB9814E35C08F03F0803
:1015440006F8023C1EF80830344606F8013C033124
:101554006346A6E7A39900002DE9F04300273C4623
:101564003D46DDF81CE0DFF8288175451FD3E4BB58
:1015740000201460BDE8F0830136764533D013F8BB
:1015840006C0BCF1200FF7D0AEEB0609B9F1010F8C
:10159400A6EB05050DD0BCF10D0F0AD103EB06092E
:1015A40099F80190B9F10A0F6ED1751CDDE72E464A
:1015B400E3E7BCF10A0FF8D02DB9BCF13D0F05D11A
:1015C4000137022F0DD96FF01500D3E71CF0800FFF
:1015D400F9D118F80C507F2DF5D03F2D01D8002FEC
:1015E400F1D10134E1E73546C1E74FF0060C04F0D0
:1015F4000706E4080CFB06F60CFB04F40736E41BB0
:1016040004EBD60470B18C420CD8002701460326A3
:101614003C46DFF87CE0DFF87C801D449D4205D128
:101624000C1AA5E76FF00B001460A3E713F8019BF5
:10163400A9F10A0C5FFA8CFCBCF1160F04D848FA25
:101644000CFC1CF0010FE9D01EF809C00134BCF1F8
:10165400400F08BF013E0CF03F0C042C4CEA8717E6
:10166400DCD17EB13C0C012E0C7002D1013100247E
:10167400D4E7022E4FEA17244C7016BF8F70023144
:101684000331F4E73446C9E7002DA2D09BE700BF3D
:1016940023990000F6FFBFFF0B6801330B60014B79
:1016A4001B6818470C45012007B50B46002102466C
:1016B4000191034801A900F013F903B05DF804FB9C
:1016C4009D1600002DE9F047058B04462807904637
:1016D40011D4022905F0070540F0CD80204606F01C
:1016E4001FF978B10138218B042811D8DFE800F004
:1016F400C3106D85950001290CBF45F0100545F018
:101704002005258388F31188BFF36F8FBDE8F08728
:1017140001F0070AAA4500F0A6800027B9463E4614
:10172400A368002B00F0BD8041F00801218388F3F9
:101734001188BFF36F8FA168002900F0BB800D688A
:10174400002900F0B780334652462046D1F8048081
:10175400C047002D76D02B6829461D46F0E701F0DE
:1017640007035A1F012A1BD8002221F00701062B68
:10177400276889B2C4E9002209D13B4603E0628BA1
:101784001B6801326283002BF9D141F0020120462B
:10179400218306F0C5F800287BD041F0200177E0D2
:1017A400042B0AD121F0070189B22046218306F0D7
:1017B400B7F810B141F020012183218B01F0070A11
:1017C400AA4550D00027B946AAE7236921F00701AA
:1017D40041F00601062DD3F8009021832DD1B9F1F3
:1017E400000F40D041F00801218388F31188BFF332
:1017F4006F8F20463949C84729E021F00701236942
:1018040041F0040189B2042DD3F804902183E6D079
:1018140000274FF0040A3E4682E721F007012369BE
:1018240041F0050189B2052DD3F808902183D6D063
:1018340000274FF0050A3E4672E700274FF0060ADC
:101844003E466DE72B4687E7B9F1000FD1D14FF043
:101854002003EFF3118883F31188BFF36F8F238B79
:1018640023F008032383258BEA062ED525F01003E5
:10187400238305F007056669218B002EBFF66FAF41
:1018840000232768C4E9003321F0070141F0010176
:101894002183218B4FF0000901F0070AAA457FF448
:1018A4003FAF002F9BD041F00801218388F31188BA
:1018B400BFF36F8F002FC7D03D6839463346524679
:1018C400204606F059F82F46F4E7AB067FF51AAF29
:1018D40025F02003238305F00705FFE6A97900001E
:1018E4002DE9F04F81464FF000088DB01D46531E80
:1018F40001910393039B58785C1C252819D100207F
:101904004FF0FF371E463C460346023602903178BC
:101914000396392955D81F2914D8002900F00282CA
:1019240001992520C84701993078C84708F1020871
:10193400E0E7002800F0F6810199C84708F10108A2
:101944000394D7E7A1F12002192AE9D80FF2040C75
:101954005CF822F0C11900002519000025190000C7
:10196400C119000025190000491A000025190000BA
:101974002519000025190000251900008F1A000000
:10198400C119000025190000A11A0000551A000011
:1019940025190000611A00007F1A00007F1A000058
:1019A4007F1A00007F1A00007F1A00007F1A0000CF
:1019B4007F1A00007F1A00007F1A000008460136D3
:1019C400A5E7582900F0F880A1F163025FFA82FCD0
:1019D400BCF1170FA4D8172AA2D80FF2080C5CF890
:1019E40022F000BF5D1C0000C71A0000251900008A
:1019F4002519000025190000A71A0000C71A0000C5
:101A04002519000025190000A71A00002519000057
:101A14002519000025190000951B00002519000058
:101A2400251900003F1C000025190000C71A0000FA
:101A34002519000025190000951B00002519000038
:101A4400A71A000025200199C84708F1010851E7A9
:101A5400029A002702F0FE020292B0E7002C0CDA90
:101A6400002F0CDA029A002A00F054810A2224EA98
:101A7400E47402FB0414303CA1E7002FF6DB0A22D5
:101A840002FB0712A2F1300799E7002F55F8042B47
:101A940080F24281002A80F2418154420222029261
:101AA4008DE7682903D1682B06D1482387E76C2981
:101AB40002D16C2B00F03481002B7FF431AF0B4644
:101AC4007DE77A2B06D155F8046B4FEAE67B75293E
:101AD4001BD112E06C2BF6D04C2B08D1073525F026
:101AE40007031D46D3F804B055F8086BEFE77529D2
:101AF40055F8046B07D14FF0000B20283FD1DFF8D5
:101B04002CA2013C0AE04FEAE67BBBF1000FF4DAB9
:101B14007642DFF81CA26BEB4B0B013C0DF12D035D
:101B2400059300230493304659460A220023FEF706
:101B340007FB049B8E46591E04910599B446303226
:101B440001F8012D5A46BCF10A0F72F10002064653
:101B5400F3460591E7D2C3F1010630330DEB030BD5
:101B6400002FABF1040B04DA029B13F0010F18BF32
:101B74002746BB1B002BD4BFA41BE41B16E02B2859
:101B84000ABFDFF8B0A1DFF8B0A104F1FF34C5E764
:101B9400702910D155F8042B002302BB6FF0040305
:101BA4000526DFF898B1DFF890A1053C029A970763
:101BB40071D4274662E078216C2B03D1002355F8B9
:101BC400042B08E04C2BF9D1073525F007031D46FB
:101BD4005B6855F8082B232828D1880623D5DFF81D
:101BE40060A1023C4FF0000B01F06001A1F1390E3D
:101BF4000DF12D0C02F00F01092988BF7144303119
:101C04000CF8011D102A4FEA121141EA03714FEA40
:101C1400131073F100030BF1FF360AD2CBF1010666
:101C24000BF130039AE7DFF81CA1DAE7DFF808A12B
:101C3400D8E7B3460A460346DCE755F804BB5846E2
:101C440006F015FB002F064602DBB842A8BF3E464D
:101C54000027DFF8E4A08CE755F8043B01268DF853
:101C64001830DFF8D4A04FF0FF33013C0DF1180B0E
:101C74009CE7029320200199C847029B013FF8D5B5
:101C8400621E501CACBF21460021C4F10004B8BF41
:101C9400002488441444574606E0049302920199B0
:101CA400C847029A049B17463A4612F8010B0028CB
:101CB400F3D11A46013A1AD55A1E0132B8BF00238D
:101CC400A3EB0A0A3346013B19D5731E0133B8BF8F
:101CD400002656444644A046B8F1010816D5631EB2
:101CE4000133B8BF0024344404EB070802E604932C
:101CF400029230200199C847049B029ADAE70293C2
:101D040001991BF8010BC847029BDCE701992020CD
:101D1400C847E1E70122C2E6174650E614464EE6FC
:101D24004C234CE640460DB0BDE8F08FF49F000014
:101D3400E3990000E59900003BA30000ED99000041
:101D4400E7990000EA990000044608B54FF0200224
:101D5400EFF3118382F31188BFF36F8F06F009F854
:101D6400204601F0EBFC034805F0CDFD01F014FA28
:101D7400FCE700BFF39900004FF02002EFF311835A
:101D840082F31188BFF36F8F0121044AC2F8401512
:101D940083F31188BFF36F8F0020704700900350C6
:101DA40020B1034B800143F001031847704700BF83
:101DB400E090000084B004AB03E907009DF8043010
:101DC400062B07D10122044BC3F80025BFF34F8F24
:101DD40020BFFDE704B0704700400050084B30B509
:101DE4001C68084B01461A6800239C4201DC002051
:101DF40030BD1046057810328D42F9D00133F4E736
:101E04003891000014450120084B10B51B680C469E
:101E14002BB1FFF7E3FF28B12060002010BD6FF065
:101E24000C00FBE76FF00100F8E700BF1445012048
:101E340030B589B00C4615460190FFF7CFFFB8B115
:101E44004368226802938368C068CDE903350023A0
:101E5400CDE90623059305F042FE60B1074901AAC6
:101E640006F0EBFA079808B9059B236009B030BD6A
:101E74006FF01500FAE76FF01200F7E7E77A000059
:101E8400F8B505464FF02003EFF3118683F311886C
:101E9400BFF36F8F094B0A4F1C6824B986F311886E
:101EA400BFF36F8FF8BDD4E90123002D18BF13468B
:101EB4000BB1387898472468EFE700BF605C0120D5
:101EC400685C01201FB50F4B1A68BAB901221A6069
:101ED4000D4A01AB07CA83E807000C4A4AB193E8EC
:101EE400070005F0E4FD002005B05DF804EBFFF702
:101EF400C7BF82F31188BFF36F8FF4E705B05DF8B5
:101F040004FB00BF10450120685C0120B37A000087
:101F1400F0B589B06E461B4C01460546304605F0C7
:101F240091FE96E8070084E807002078274638B336
:101F34000021154B19606B1C0DD016464FF4004C54
:101F440012480023E6FB0C01114AFEF7F9F80121BF
:101F5400281A06F08BFE03F097FA0120FFF790FF92
:101F640097E8070005AB83E807000A4A1AB193E82B
:101F74000700FFF71FFFFFF7A5FF03F099FA20788A
:101F840009B0F0BD685C0120104501203F420F00FC
:101F940040420F00B91D0000084B70B5C31A0D462E
:101FA40007499B10044659434022064805F06BFE3E
:101FB4002B4601462046BDE8704018478C5C012042
:101FC400B76DDBB67C8D0000402373B50B4C0093DA
:101FD400041B0B460D460A49A41061430646094AF0
:101FE400094805F07CFE011E05DA30462B4602B096
:101FF400BDE87040184702B070BD00BF8C5C012082
:10200400B76DDBB64D7D00007C8D000070B50022FD
:1020140001210446052001F063F8052001F044F88D
:102024000F4802F0E7FB0F4B984215D106F064FC11
:1020340026690D49304605F0C4FC00280BDB012558
:1020440024690949356404F11C0005F0BAFC002830
:1020540001DB0020E56470BD6FF00400FBE700BF06
:10206400A52000000000AD0B0091000001460C23E8
:1020740000224B43084870B5C41840331844D4E9CF
:102084000E56A26305F0ECFD2DB132462B46BDE899
:1020940070400248184770BD8C5C01207C8D0000A4
:1020A40010B1012804D07047034B1B6C5B0701D1AE
:1020B400FFF7DCBF704700BF8C5C012008B54FF010
:1020C4002003EFF3118183F31188BFF36F8F124A5A
:1020D400136843F002001060DA0708D481F3118812
:1020E400BFF36F8FBDE80840012006F010BC4FF02D
:1020F4005023D3F80C24D3F80C34D307EED5074877
:1021040005F0AEFD81F31188BFF36F8FBDE8084081
:102114000020FFF7ABBF00BFDC5C0120CC5C0120DA
:102124001FB500220123CDE902236B46084ACDF8EE
:1021340000D0CDF804D005F000FE002805DB4FF4F4
:1021440080420023684602F067FF05B05DF804FB97
:102154006D7D0000074BD3E8EF2F22F00201C3E8A6
:10216400E01F0028F7D1D30702D4012006F0FFBBFB
:10217400704700BFDC5C01202DE9F04101220746D5
:102184003749D1E8EF3FC1E8E02F0028F9D133B94E
:10219400344935484B60CB608A6005F025FC7B1ED2
:1021A400012B2BD8012F07D14FF05023D3F81C3427
:1021B40003F00303022B21D006F069FC0546F8B9AD
:1021C4002A4B1B78E3B14FF0502302220646C3F892
:1021D40008234FF05024DFF89880D4F81834D4F84A
:1021E4001824D20316D503F00303022B01D0012FC8
:1021F40010D175B386F31188BFF36F8FBDE8F081FA
:102204004FF02003EFF3118683F31188BFF36F8F30
:102214000125DEE7C5B1304600F0CCFFD4F818350F
:10222400DBB2012BD9D1D4F80421002AD5D0002265
:10223400C4F80421D4F804210222C4F81825202269
:10224400C8F88021A360C8E70021212003F0DEF94B
:10225400E4E74FF050230222C3F80423CEE700BF83
:10226400845C0120745C0120A85C01202F6D012096
:1022740000E100E0044A1368C81A20F07F400344D8
:10228400136003F017BB00BFF05C01202DE9F04799
:102294004FF480374FF00009860000F1500406F136
:1022A4005026A40006F58036A4B204F15024D6F8D2
:1022B4004035DFF86C8021F07F4504F58034874099
:1022C400D8F804A5A3EB0A0323F07F432AF07F4246
:1022D400012BC6F8402502D1132006F0E9FC0AF1CF
:1022E4000202AB1A23F07F43B3F5000F88BF1546F3
:1022F400C4F80090236825F07F43C8F84473C6F8F7
:102304004035D8F804359A4506D0EB1A023B23F041
:102314007F43B3F5000F01D8BDE8F0872B46CFE724
:1023240000500150114B0020D3F8042310B5D20300
:102334001BD5D3F84021C2B1C3F84001D3F84021E2
:102344004FF48032C3F84823D3F84025D3F804155A
:102354008B1A23F07F43B3F5000F98BF1146044B4B
:102364001C6818600CB15A68A04710BD0050015099
:10237400E85C012038B500254FF480334FF4001297
:102384000C4C0121C4F80855C4F804330A4B152039
:10239400C3F880212A4600F0A3FE152000F084FE35
:1023A4000123064AA360022023601360FFF7E4FEC2
:1023B400284638BD0050015000E100E0E45C0120F3
:1023C400134A144910B4B0F1FF3F14BF03460B463F
:1023D400D2F80405104A1468001B20F07F42000262
:1023E40014D4013B8B42A8BF0B4623EAE3730132AA
:1023F4000A4813440A4A8B4294BFE11861181060DA
:1024040000205DF8044B5060FFF740BF0023EEE767
:1024140000500150FFFF7F00F05C01207922000092
:10242400E85C0120044BD3F80405044B1B68C01A74
:1024340020F07F40704700BF00500150F05C012045
:10244400014803F0F5BA00BFDC91000010B5044662
:1024540018B90D4B0D485B689847616831F0040367
:102464000CD008290AD011F0020108D021460848EE
:1024740006F0E4FA002323600023636010BD1422F5
:10248400206805F039FFF7E7B4450120599A0000A8
:10249400F461012008B5E8B14368042B0CD1012292
:1024A4000368D3E8EF1F002903D1C3E8E02F002815
:1024B400F7D10BD1002008BD53B100684FF0FF32B3
:1024C4004FF0FF3302F0CEFC0028F3D00348F2E7CC
:1024D4000348F0E76FF4E040EDE700BFE98FFFFF4A
:1024E400EA8FFFFF08B5A0B14368042B0CD100228A
:1024F4000368D3E8EF1F012903D1C3E8E02F0028C4
:10250400F7D109D1002008BD43B1006802F022FDD3
:10251400F8E76FF4E040F6E70148F4E70148F2E732
:10252400E98FFFFFEA8FFFFF10B5044618B9164B79
:1025340016485B6898476368042B23D0082B21D086
:10254400CBB92368BBB94FF0FF324FF0FF332146BC
:102554000F4802F0B7FB08B923681BB90A4B0D48B2
:102564005B68984714220021206805F0C5FE636863
:1025740043F002036360206806F0A0FA636843F046
:102584000103636010BD00BFB4450120599A0000E7
:10259400F46101207F9A000008B506494023142203
:1025A400054806F030FABDE808400449044803F041
:1025B4009DBA00BFF45C0120F4610120E4910000A5
:1025C400F8910000F7B5254E306883685B6C03B161
:1025D4009847306883685B6B002B32D1204C214DC7
:1025E400306883689B69002B2ED001220DF107010E
:1025F4009847012828D1236843B92B6833B3696805
:102604001A688B422A6000D16A602360164A9DF8DA
:1026140007001188B1F5007F04D223684F1C0B44D6
:10262400178018720A28DBD10020236811881860EB
:1026340059600E494D6875B9C1E9003310802060B6
:10264400CDE798470028C9D103B0F0BD452108481B
:1026540005F038FAF8E72B604B60EFE738660120A5
:1026640010620120206201206867012018620120A5
:10267400AC9A0000044B10B5044618688368E1B2B4
:102684005B689847204610BD38660120F8B50546BA
:102694008E4616464FF02003EFF3118783F311881B
:1026A400BFF36F8F1C48036853B11C4A51689942A9
:1026B40006D04FF0000CC3F800C069B9C2E900337A
:1026C400174B196859B987F31188BFF36F8F0160ED
:1026D400002318463360F8BD0B605360F0E75C6874
:1026E4000A68A1421A6008BF5A6087F31188BFF3D1
:1026F4006F8F4B6801600831EAD00EF1FF349C42C1
:10270400A8BF1C462846224605F0EBFD0023601CAA
:102714002B550123DEE700BF146201202062012053
:102724001862012037B500251B4B1C4AC3E900552C
:102734001B4B03F502711360C3F808521960516012
:10274400184802F07BF9184C206010B3836823B159
:102754009B6C13B12A4615499847206883685B6BC4
:102764005BB1984748B90022114B20681A808368EE
:102774009B6A63B9002003B030BD206883689B69FD
:10278400002BF0D001220DF107019847EAE79847A2
:10279400F0E74FF0FF30EEE71862012020620120DD
:1027A40028620120DB9A000038660120C925000058
:1027B4006867012040F606132DE9F041DFF80C812B
:1027C400D2B0D8F80000ADF80C303B4B3B4F1C683E
:1027D4000378E41B01330370002362BA42808288C9
:1027E400437052BA82800821009341F2210205F01D
:1027F40041F8012203462146ADF810000092384604
:1028040041F2210205F036F82D4EA5B2336840BAE4
:102814000A355B68ADF81000022103A86DBA984729
:10282400ADF8125002250DF11201022206A805F09E
:1028340058FDD8F8001008220DF11A00ADF8125016
:1028440005F04FFDBDF8120006AB083080B22246F9
:102854003946ADF81200184405F043FDBDF81230B6
:102864002A46E01880B206ABADF8120004A9184459
:1028740005F037FDBDF8123005AA2B449BB2ADF824
:1028840012300093AD2106AB26A8FEF7E7FD0599AB
:102894003368ADF8121026A85B6889B2984733688C
:1028A40029465B68074898474921074805F00AF913
:1028B40052B0BDE8F08100BF3C4501206B680120A7
:1028C40054660120F19A0000F49A00004866012041
:1028D4002DE9FF410C681A4F02380D46C4F500710A
:1028E4000090184B381903AA0131FEF735FE04464F
:1028F40010BB2B68039A1344022B2B6018D93E8813
:10290400023B76BAB6B29E4212D14FF0010803469A
:1029140041F221023146CDF80080B81C04F0AAFF30
:1029240030B9022E04D92B689A1E2A60FC544446FE
:10293400204604B0BDE8F0814FF0FF34F8E700BF53
:10294400EB680120EE6A012013B50D4C0A212046E4
:1029540005F0DFFB6B460B4A92E8030083E80300B3
:102964001946204605F0C6FB0021204605F0B7FBBA
:102974000A21204605F0E5FBFFF71CFF02B010BD5D
:102984003C450120A09000002DE9F04F0729A9B093
:1029940040F2C780067816F0FD0640F0C2804388F6
:1029A400A1F108045BBA9BB2A342C0F0BA8082884A
:1029B400A04BA14D186053BA8380A04BB2F5807F21
:1029C4002B6003F18003EB6040F0EE81C7793FB1E7
:1029D400012F00F0AB8029B0BDE8F04FFFF7B4BF82
:1029E4000121284605F095FB954B08A90893062379
:1029F4002846099305F07EFB0521284605F07DFB5A
:102A04003C46904E904FDFF860822146002004F04F
:102A1400C5FB07A9C0B2FFF7F7F90546002875D131
:102A24002023014610AA079805F07CF8109BD6F8DD
:102A34000090BB420DD14023019318AB009329466B
:102A44002846CDE90355079B029510AAFDF712FE0F
:102A54008146079805F065F8D8F800304B4555D104
:102A64001421754805F055FB784B0AA90A930423F1
:102A740071480B9305F03EFB21466F4805F02FFB90
:102A8400734B0DF160090C9307230CA96A480D934D
:102A940005F030FB9DF85410484605F07CF94FF0E2
:102AA4002E0A00F1A003451C0DEB03009DF8551000
:102AB40000F840AC09EB050005F06DF9284400F17D
:102AC400A003451C0DEB0300BDF8561000F840AC04
:102AD40009EB050005F05FF9054405F1A0036B441B
:102AE4000135169903F840AC09EB050005F053F9DC
:102AF4004846CDF8389005F0BAFB0EA90F904E4821
:102B040005F0F8FA14214C4805F01BFB64B10521CB
:102B1400494805F00AFB0121474805F012FBFFF77D
:102B240049FE29B0BDE8F08F01246EE721460AABC7
:102B340018AA0830089600F035FA68BB0324224628
:102B44004921444804F0BEFF0A213B4805F0E1FA5C
:102B5400414B10A9109302233748119305F0CAFA88
:102B64002146354805F0BBFA64B93C4B0EA90E93D7
:102B7400032331480F9305F0BDFA394B2E481968E9
:102B840005F0ADFA0A212C4805F0DBFAFFF712FE36
:102B9400089804F0C6FFC4E70A9B9C42CED14FF0CC
:102BA400FF3432463046A3463546A146A246B046D7
:102BB400279F18ABBA4226D1BAF1FF3F08BFB9F13B
:102BC400FF3FBBD0B8F1000FB8D0002104F0E6FA03
:102BD40008A9C0B2FFF718F90028AFD159EA0A03CF
:102BE4001F4F08D1089B38609B68A34270EB0B0011
:102BF400A4DB1C4B1C603B68BAF1000F08BF4B45BB
:102C040034D000249BE7197A032904D8DFE801F0C3
:102C14000206090D186801320C33CBE7D3E90085AD
:102C2400F9E71C684FEAE47BF5E7196889464FEA3F
:102C3400E17AF0E7486601203C4501206B680120F9
:102C4400FC9A0000004501203DB8F396039B000068
:102C5400089B0000DB9B0000E99B0000EC9B00004C
:102C6400506601204C660120F8470120DFF87CA162
:102C74002B44DAF8002093423FF660AF089804F042
:102C8400CFFFB5FBF0F303FB10533868DAF80020EC
:102C94004119914238BFED1A0CA9284428BFDEB26D
:102CA400FDF7D6FC044620B145214B4804F00AFF49
:102CB40045E7DFF83C910C9AD9F800309A4212D0DB
:102CC40049214648C9F8002004F0FCFEDDE90C1255
:102CD400089804F076FF044628B12246452140486E
:102CE40004F0F0FE2BE73A6849213E48AB1804F0A3
:102CF400E9FE002E3FD0AC1B0DD023464246396876
:102D0400089804F02BFF00287FF418AF35463B6881
:102D1400A04423443B603246414610A805F0E1FA42
:102D2400089804F086FF10AB0146C6F10802981912
:102D340005F0E2FA089C3E68204604F071FF314633
:102D44000346204610AA04F009FF00287FF4F6AEDB
:102D54003B681D44DAF800303D609D427FF451AF7A
:102D6400089804F0FCFA0CA9FDF772FC044638B18B
:102D740045211D489AE72B46424639680898E2E700
:102D84000C9AD9F800309A427FF73BAF4921134897
:102D940004F098FEDDE90C12089804F012FF0446D2
:102DA40000283FF4CCAE98E7002A7FF4BAAEC3798A
:102DB400012B3FF410AE052B7FF4B3AEFFF7C4FD37
:102DC40000214FF4005002F021FC012029B0BDE89D
:102DD400F04FFEF7B9BF00BF109B00003B9B000003
:102DE4005E9B0000819B0000A19B00004C660120BB
:102DF40038450120F7B500240546194B194E1A4FE2
:102E040000941860C4F500712B6801AA01313019CF
:102E140098470028019B01DC002BF3D004442BB914
:102E240040F201239C42EDD10024EBE73378062BDA
:102E340009D17378092B0BD1002300936946A01E96
:102E4400FFF746FD04E0042B02D17378142BF5D070
:102E54000128E9D1009938460239FFF795FDE3E7E7
:102E640054660120EC6A0120ED68012030B585B07C
:102E740005460C4605F06EF820B9002404F0010064
:102E840005B030BD0C2304F13C02CDE9014305211A
:102E94000120054B009505F06DF80446284605F021
:102EA40067F80028E9D0E9E7B12E000073B50446BD
:102EB4000D4605F083F910B9002002B070BD344B03
:102EC4006946009305232046019305F040F858B164
:102ED4002946204604F0F2FF30B100232B7220462D
:102EE40005F073F90120E8E7204605F06AF978B1A6
:102EF400284B6946009304232046019305F027F8E4
:102F040030B12946204605F01FF808B10123E5E752
:102F1400204605F056F978B11F4B69460093032308
:102F24002046019305F013F830B12946204604F0F9
:102F3400C5FF08B10223D1E7204605F042F978B174
:102F44000326164B694620460093019604F0FFFFC2
:102F540030B12946204604F0B1FF08B12E72BEE715
:102F6400204605F02EF978B10D4B694600930323F2
:102F74002046019304F0EBFF30B12946204604F0CB
:102F8400E3FF08B10423A9E7204605F01EF993E7FF
:102F94005D980000F09B0000F59B0000EC9B000096
:102FA400F99B00001FB54FF0020C0124CDE9014C40
:102FB400024C009405F00DF904B010BD712E000010
:102FC400094A0A49936809685867996708494B6828
:102FD40043F080534B60002383F31188BFF36F8F5A
:102FE4009368986F704700BF0C6701200C93000032
:102FF40000ED00E022498A6882F8BDE04FF030001D
:103004001044EFF3098C80E8F01F1EF0100F03D179
:1030140002F17C0080EC108A202080F31188BFF339
:103024006F8F184F4FF000664A6A8A603E6092F9CB
:10303400BDE0506F0023536780F311881EF0100F1A
:1030440003D00023E1EE103A03E002F17C0090EC9F
:10305400108AEFF3148323F0040383F31488BFF37B
:103064006F8F02F1300090E8F01F8CF3098802F1B1
:10307400000004B505F0E3F8BDE804407047000023
:103084000C67012004ED00E01EF0040F0CBFEFF309
:103094000880EFF30980816911F8021C0229FFD02E
:1030A40001B505F0D0F801BD40B2002807DB0123CB
:1030B4004109034A00F01F00834042F82130704761
:1030C40000E100E0054B420953F82220012300F0FF
:1030D4001F0003FA00F01040704700BF00E100E059
:1030E40040B2002801F10101ACBF00F16040064B81
:1030F4004FEA4111C9B2ABBF00F5614000F00F00C7
:1031040080F800131954704714ED00E042F8203C95
:10311400009B0D4942F81C3C019B21F0010142F83F
:10312400183C029B42F8081C42F8143C4FF0807390
:1031340042F8043C002343674FF47D43203A026580
:10314400C0F8BC30704700BF9D7A00000023E1EE58
:10315400103AEFF3148323F0040383F31488BFF3CA
:103164006F8F094B9860436E83F30B88104681F38D
:103174000988002163B681F31188BFF36F8F0022A1
:10318400002304F089FC00BF0C67012001491022D0
:103194000A60704710ED00E072B6404080F3118879
:1031A400BFF36F8FBFF34F8F30BF62B6BFF36F8F24
:1031B400704700BF72B6494081F3118820BF80F385
:1031C400118862B6704700BF2DE9F04107460C46EE
:1031D40086B000294AD08B6828480093D1E900239F
:1031E400452104F06FFC636945210093D4E903236E
:1031F400234804F067FC4521E269224804F062FC9C
:1032040026460025DFF88880D6ED0B7AFCEEE77AB7
:1032140096ED087ACDED057AEB1C0493D6ED0A7A87
:10322400FCEEE77ACDED037AAB1C0293D6ED097A76
:10323400FCEEE77ACDED017AFCEEC77A6B1C2A46E8
:103244000093452117EE903A4046043504F03AFCC9
:10325400102D06F11006D7D14521226E0A4804F03C
:1032640031FC4521A269094804F02CFC214638466A
:1032740006B0BDE8F04101F00BBC00BFFD9B0000AF
:10328400319C0000659C0000C19C0000D59C00009E
:10329400799C000030BFFFF7FDBF00BF144A08B59A
:1032A400144B22F07F029A60BFF34F8FBFF36F8FEE
:1032B400D3F8882022F47002C3F88820D3F8882039
:1032C40042F4A002C3F888204FF04042C3F83422ED
:1032D400BFF34F8FBFF36F8F0023E1EE103A01F07D
:1032E40025FC02F005FA00F073FA01F043FC00BF7C
:1032F4000000000000ED00E001B572B60B4A106A50
:1033040000281EBF0021116205F0C9FB62B6EFF36D
:103314000580A0F110004FEAC0000549014409C925
:103324009847BDE801400349084700000C670120A5
:103334000C8E000025370000002080F31488BFF3B2
:103344006F8F002080F30A8880F30B8805F0E2FC7D
:1033540000200E490860BFF34F8F0D4880F30888A2
:1033640000F010FA202080F311880A484FF400611D
:10337400401880F30988EFF314800221084380F396
:103384001488BFF36F8FFFF789FF000094ED00E00E
:103394003098012030980120EFF30880EFF3098181
:1033A40001B5724600F008F901BD00BF38B5214CE3
:1033B4004521214804F086FBA36A9D0103D54521DC
:1033C4001E4804F07FFBA36ADC0103D545211C4899
:1033D40004F078FB174DAC6A14F4801404D0452132
:1033E400184804F06FFB0224AB6A180303D5452187
:1033F400154804F067FB0F4DAB6A590303D545210B
:10340400124804F05FFBAB6A9A0303D545211048C8
:1034140004F058FB074DAB6ADB0303D545210D4887
:1034240004F050FBAB6A20466FEA03436FEA134390
:10343400AB6238BD00ED00E0089D0000259D000052
:103444003D9D00005C9D00008B9D0000AE9D000032
:10345400D89D0000F79D000070B5234C06460D462C
:103464002248452104F02EFBA36AD90403D5452143
:103474001F4804F027FBA36A1A0503D545211D48FC
:1034840004F020FB184CA36A9B0510D51A4845216B
:1034940004F018FBA26BA36A180408D54521174849
:1034A40004F010FB1EB1A36A23F40043A3620E4C84
:1034B400A36A590503D54521114804F003FBA36A07
:1034C400DA050BD545210F4804F0FCFA0020064A22
:1034D400936A43F47F439362287070BDA36A9B048C
:1034E400F4D545210848EFE700ED00E0279E0000F1
:1034F400429E0000589E0000709E00008E9E0000B8
:10350400A89E0000C89E0000E59E000070B5224CF5
:1035140006460D462148452104F0D4FAA36AD8068C
:1035240003D545211E4804F0CDFAA36A190703D533
:1035340045211C4804F0C6FA174CA36A9A0710D513
:103544004521194804F0BEFA626BA36A1B0608D52C
:103554004521164804F0B6FA1EB1A36A23F080038D
:10356400A3620D4CA36AD80703D54521104804F083
:10357400A9FAA36A990603D545210E4804F0A2FAD4
:103584000020054B9A6AD20658BF9A6A9A6A42F09A
:10359400FF029A62287070BD00ED00E0199F0000E0
:1035A400349F0000589E00006C9F0000899F00001B
:1035B400A49F0000E59E00002DE9F041494B06461A
:1035C4005F6800259CB0C7F3080485F31188BFF336
:1035D4006F8F02F07F43B3F17F4F07D102F00C03EA
:1035E400082B13D14521404804F06CFA00252E46DF
:1035F4004FF00008E31E8DF80780092B5FD8DFE841
:1036040003F00A5357375E5E5E5E5E5B10074CBF85
:103614000E460125ECE7334C4521344804F052FAB8
:10362400E36A8DF807809A0705D54521304804F0F0
:1036340049FA00241FE0E36A5B00FAD545212D48CE
:1036440004F040FA94F828302BB101200DF1070161
:10365400FFF75CFF0EE094F829302BB101200DF147
:103664000701FFF7F9FE05E0638D9BB2002BE0D064
:10367400FFF79CFE04469DF8073093B96822314653
:1036840002A804F02EFE099B35B3C3F3080222B945
:103694006FEA53236FEA43230993204602A9FFF7F5
:1036A40093FD1CB0BDE8F08100200DF10701CFE7C8
:1036B40000200DF10701D4E745210F48B7E70F4972
:1036C40017F4F87F0E4A0F4808BF0A46A4F1100306
:1036D400452104F0F7F9ACE723F4FF7323F0010369
:1036E400DAE700BF00ED00E0F69F000026A000002E
:1036F40042A0000068A000008CA00000C89F000049
:10370400DD9F0000B5A00000044B5A6942F010028E
:103714005A615A6942F480625A61704700ED00E0D0
:10372400044B9968586A884203D003494FF0805289
:103734000A6070470C67012004ED00E0BFF34F8F6F
:103744000549064BCA6802F4E0621343CB60BFF339
:103754004F8F00BFFDE700BF00ED00E00400FA0555
:10376400002318460649D1F89020C2F30722934259
:1037740000DB7047C1F89830C1F8A0000133F6E7C8
:1037840000ED00E010B572B6002484F31388FFF74F
:10379400E7FF23464FF0FF300C4A03F120010133C9
:1037A400102B42F82100F8D100234FF0FF30074AD4
:1037B40003F160010133102B42F82100F8D162B605
:1037C400BFF34F8FBFF36F8F10BD00BF00E100E068
:1037D400002320210348C2180133412B82F800132F
:1037E400F9D1704700E100E0064B9B68834207D1A2
:1037F400EFF3058323B1044A536843F080535360C5
:1038040001F024BF0C67012000ED00E01FB5094C56
:10381400094A23460121094800F024F900230393AF
:10382400074B0121E41A01A80193029400F024F942
:1038340004B010BD000004200045012008920000DF
:103844006846012010B50B680C7A23F01F0304F0BE
:103854001F021A43CB68640923F01F03054943EA96
:10386400440343F00103C1F89800C1F89C20C1F857
:10387400A03010BD00ED00E030B54B680C6885B099
:103884000A894D890094013B24F01F04234402F06B
:103894001F0242EA451223F01F030F2804468DF845
:1038A4000820039309D902464521064804F00AF981
:1038B4006FF01504204605B030BD6946FFF7C2FF1E
:1038C400F8E700BFD1A000002DE9F04F8946144667
:1038D40006464FF00008544D85B0C84527DAD6F89F
:1038E40004A0BAF1000F45D0BAF11F0F18D91AF08D
:1038F4001F0F15D1D6F800B01BF01F0F10D158467A
:1039040004F0ACFC07460AEB0B00013804F0A6FCFB
:10391400874210D06FF015073A464521434802E02C
:1039240042464521424804F0CDF86FF01504204684
:1039340005B0BDE8F08F17F1160FEDD0631EBB4242
:10394400EADBC5F89870D5F89C10C5F89870D5F8DE
:10395400A03021F01F0143F01F0BD6E900321A44B6
:10396400994202F1FF3A1DD1D34507D13146F8B24D
:10397400FFF782FF08F101080C36AEE73146C5F8BF
:103984009870D5F89C3022F01F0203F01F031343F4
:10399400C5F89C30E0B2FFF76FFF10F1160FC4D0EA
:1039A400441CE7E7C5F89870D5F8A020013B23F044
:1039B4001F0302F01F021343D3453146E0B2C5F89A
:1039C400A030E8D0FFF758FF10F1160FADD0C5F8BE
:1039D4009870D5F89C209DF808300BF1FF3B62F3FA
:1039E40004038DF80830D5F8A0309DF808205B0852
:1039F40063F34712D6E900310B44009323F01F030D
:103A040001305B44A3EB0A03C0B223F01F030F2869
:103A14008DF80820039303D902464521054882E71F
:103A24006946FFF70FFFBBE700ED00E024A10000AB
:103A3400FCA00000D1A000000522044BC3F8942090
:103A4400BFF34F8FBFF36F8F704700BF00ED00E0EF
:103A5400BFF35F8F0022024BC3F89420704700BF6E
:103A640000ED00E010B5034C2278FFF72DFF207025
:103A740010BD00BFED6C01202DE9F74F294D8A469A
:103A840006464FF00008AB46274FD0451BDAD6F860
:103A94000490B9F1000F3FD031680846019104F059
:103AA400DDFB0199044609EB0100013804F0D6FB63
:103AB40084424FF014021D4B08D002FB08F36FF050
:103AC40015024BF8032003B0BDE8F08F14F1160F74
:103AD4002C60F8D01978A142F5DD02FB08B0C7F8D4
:103AE4009840C7F89840D7F89C4000F10801007B43
:103AF40064F304000871D7F8A0000C79400860F35F
:103B040047140C71D7F89C1021F01F016960D7F895
:103B1400A01021F01F01296108F1010814350C36A9
:103B2400B3E700BF5866012000ED00E0ED6C012012
:103B340038B50E4D2C68102C15D80020FFF788FFDF
:103B44000B4B0C4AC3F8C020844205D10A4B002019
:103B54001C70FFF771FF38BD696801EB0011FFF7B6
:103B640071FE0130F0E74FF0FF30F4E714920000EB
:103B740000ED00E0AAFF4400ED6C012008B50A48FE
:103B840000F05CFF60B102698168136823F00043B0
:103B940013600B684FF420621F219847002008BD72
:103BA4006FF01200FBE700BF98940000064A00F093
:103BB4001F0002EB8002D2F8003223F4403343EAC0
:103BC4000143C2F8003270470025845008B5094B00
:103BD4001A786AB901210D2019700521FFF780FABE
:103BE4000D20FFF761FA4FF00042034BC3F80423A2
:103BF400002008BDEE6C012000D00050284B70B5A9
:103C040046682848134083423BD00DD8062B15D074
:103C140005D89BB1022B36D06FF0150030E0B3F518
:103C2400801FF9D1012309E01F4883422DD0B3F549
:103C3400A00F2CD0B3F5800FEED10223D0064CBFD9
:103C44000325C2F3401582F4807412F4007FC2F39A
:103C54004020C4F3002406D012F4006F766818D014
:103C640001228A40B26040EA4402002042EA03236F
:103C740001F01F010D4A43EA8503803142F82130E7
:103C840070BD0723DAE70423D8E70523D6E7032327
:103C9400D4E7520542BF01228A40F260E3E700BF45
:103CA4000600F000060010000200400000258450C9
:103CB400F7B51F464368B2F5A03F1D7A04690E4666
:103CC400944601F01F004FEA45151ED15D4A00F1EC
:103CD400800352F82330DB0700F1B1800122E3684E
:103CE4008A401343E360636913430122B7F5C02F8D
:103CF40002FA06F263616FEA020CA169236912D128
:103D04000A43A2610CEA030314E001238B40D94364
:103D1400E268BCF5005F18BF1A43636908BF0A4034
:103D2400E2600B40E1E70CEA0101B7F5802FA161E5
:103D3400E8D11343054300202361434BD3F8042304
:103D4400D2B2830003F1A04303F55043D3F8101516
:103D5400C1F304218D425FD122FA00F1CF075BD574
:103D6400D3F8102522F00102C3F810250123364AA6
:103D74008340C2F80833C0B200F0ACFD00212846ED
:103D8400FFF714FFE368F340D90756D56369F3409E
:103D9400DA0748D5A3690DF10700F340DB0757BFE5
:103DA40024690324F44004F001045CBFC4F1020458
:103DB400E4B200F0AFFD254B984231D100209DF8CC
:103DC40007102D028B0003F1A04303F55043D3F8F1
:103DD400102505F4F85522F4473222F44072C3F852
:103DE4001025D3F8102515438A0002F1A04202F5EC
:103DF400514245EA0445C3F8105510601268D3F8DF
:103E0400102542F00102C3F8102501230E4A8B400D
:103E1400C2F8043303B0F0BD0130082891D1ADE7F6
:103E24006FF01200F6E721692846F14001F0010124
:103E3400C1F10301C9B2FFF7B9FE0020EAE76FF050
:103E44008500E7E70025845000D000500000AD0B4A
:103E5400454B2DE9F047D3F87C61002E5AD0434BF3
:103E64000127D3E90520D968024321EA020845461F
:103E74004FF00009DFF800A11B69DAF810405C403C
:103E840028EA040485BB384BC3F87C51D3F87C3151
:103E9400002301251F46364A3348D0F8041305FA97
:103EA40003FC1CEA010F0CD0116851B103F5A27197
:103EB40050F821101760C1F3042105FA01F10C43F5
:103EC40011680133082B02F10402E6D124BB4EB180
:103ED40001250026254FFC68D7E90532134324EA5F
:103EE400030474BBBDE8F0872F420FD017EA080F14
:103EF40009F01F0008BF00F180034FF0000108BF64
:103F04005AF82330FFF752FE25EA070509F10109A3
:103F14007F00B7E73446BBE7144B59680029D6D075
:103F24000D68144F0029D2D08A68224002D0384646
:103F34004B6898471DB12B6829461D46F2E72B466E
:103F4400FAE725420CD0396906F01F00F14001F070
:103F54000101C1F10301C9B2FFF728FE24EA0504F7
:103F640001366D00BDE700BF00D00050706601202F
:103F740000D10050DC8D000000258450024B0B6002
:103F840001231360704700BF90660120004870470A
:103F94008492000070B50D461946284616461C4604
:103FA40004F0FDF940B9084823462A46452103F0A8
:103FB40089FD6FF0150070BD24B1224629463046B4
:103FC40004F08FF90020F6E75BA1000010B5012290
:103FD4000648114604F079FD04F007FD044C206006
:103FE40004F000FD6060002010BD00BF9866012051
:103FF40090660120F8B50E46144604F0F3FC214601
:104004000546304604F0CBF9374650B3B6FBF5F31A
:1040140005FB136323B9B4FBF5F305FB134343B169
:10402400234632464521114803F04CFD6FF015003C
:1040340002E0A54201D90020F8BD4FF0FF324FF055
:10404400FF330B4800F0E8FF04F0CCFC054638468B
:1040540000F0A6FC641B2F44F9D1054800F0BCFF16
:10406400E9E72346324645210248DDE77DA1000009
:10407400986601205BA10000F8B50E46194630464B
:1040840017461C4604F08BF940B9234632464521B5
:10409400164803F017FD6FF01500F8BD46EA040555
:1040A40015F0030504D02346324645211048F0E7B5
:1040B400A4B14FF0FF324FF0FF330E4800F0ACFFD5
:1040C40024F00304AC4206EB050009D10A4AD2F8F5
:1040D4000034DB07FBD5074800F07EFF0020DCE757
:1040E400795900F07BFC0435ECE700BF5BA10000CC
:1040F400A1A100009866012000900350F0B54B790F
:10410400012B2AD0032B25D110268B79032B21D107
:10411400CC792CB1012C1DD143685B689B0719D065
:104124000A7912B1022A15D10E220B684568B3F53B
:10413400164F2D6865D02DD8B3F5165F64D016D808
:10414400B3F5966F62D00AD8B3F5967F61D0B3F514
:10415400167F61D06FF0850052E00026D5E7B3F5F5
:10416400166F5CD0B3F5965FF4D1374B3CE0B3F5F2
:10417400E14F57D007D8B3F5615F55D0B3F5964FEB
:10418400E8D1324B30E047F61227BB42E2D14FF47C
:10419400000329E0B3F5613F48D013D8B3F5963F47
:1041A40047D009D84DF6C027BB4244D0B3F5614F80
:1041B400D0D14FF46B0317E0B3F5E13FCAD14FF010
:1041C400EB7311E0B3F5612F38D008D8204FBB4210
:1041D40037D0B3F5E12FBDD14FF0E86304E01D4FB4
:1041E400BB42B7D14FF08053C5F82435036934433B
:1041F4002243043303C9C5F86C2583E80300002077
:10420400F0BD4FF41D03EFE7134BEDE74FF49E238E
:10421400EAE74FF4A033E7E74FF41C33E4E74FF445
:104224001D23E1E70D4BDFE70D4BDDE74FF06C732A
:10423400DAE70C4BD8E74FF46503D5E74FF070632A
:10424400D2E74FF08063CFE700B0130000A04E0028
:1042540090D0030040420F000050270000C07500BA
:1042640000F03A0000903A01F8B505460F46066999
:1042740004F00DFCB0B9204B1B789BB16424686832
:1042840004F0CFF9F8B9012004F034FB013CF6D175
:104294000021212001F0BAF9F0E784F31188BFF37B
:1042A4006F8FF5E74FF02003EFF3118483F3118848
:1042B400BFF36F8F686804F0B4F988B984F3118888
:1042C400BFF36F8FEEE74FF02003EFF3118483F316
:1042D4001188BFF36F8F686804F0A3F90028DCD05D
:1042E400314601F8147F0122686804F07FF984F3F1
:1042F4001188BFF36F8FF8BD2F6D01202DE9F843AE
:104304000023D0F804900569D9F800400F46C4F89A
:1043140000350646286008680121434B00F01F025F
:10432400914099600321803243F822107A68511C2D
:104334001FBF4FF00C0C02F01F01803143F821C065
:10434400B968C4F80C05481C18BF0C20C4F814251F
:104354001EBF01F01F02803243F82200F868421C9D
:104364000CD04FF0010C00F01F020CFA02FCC3F851
:1043740008C04FF0030C803243F822C0C4F808058B
:10438400C4F810153046291DFFF7B8FE804680B9E1
:10439400D9F8043019071BD505F1160000F06EFAA0
:1043A400224B984208D04521214803F08BFB6FF043
:1043B40004084046BDE8F883AA7D42F00043C4F8EF
:1043C400A031C4F88C30012393401A4AC2F8043552
:1043D4000823C4F800357B6801330CD00023C4F8EB
:1043E4001031D4F8103105F11503C4F83435012324
:1043F400C4F838352360736814355B681A075CBFEA
:104404004FF48072C4F80423DB0644BF4FF48003E6
:10441400C4F804330023C4F84455C4F848350123D0
:10442400A360E360C5E700BF002584500000AD0B26
:10443400CEA100000070015030B585B06C46054631
:10444400084B0FCB84E80F00002201210A20FEF75D
:1044540047FE0A20FEF728FE21462846FFF74EFFB6
:1044640005B030BDA890000030B585B06C46054657
:10447400084B0FCB84E80F00002201210820FEF72F
:104484002FFE0820FEF710FE21462846FFF736FFD0
:1044940005B030BDB890000040EA0103C3F30E0339
:1044A40030B58BB940F21515094CC90BC0F3C730B0
:1044B400994201D1002030BDC218D2B202F5C072B7
:1044C40044F822500133F3E76FF01500F3E700BF1F
:1044D400003000500348452108B503F0F3FA0020EA
:1044E400FFF72CF909A20000816808B5044A1023DB
:1044F400103903F033FB003818BF012008BD00BF9A
:10450400E892000030B50D46816887B0102302AAF6
:104514001039044603F006FB002802DA012007B034
:1045240030BD1022204602A904F043F9A8BB102292
:104534001B4902A803F0AEFE00280CBF012302238E
:104544002B70A168012320460DF10702283903F0DE
:10455400E9FA0028E2DB9DF80730204603F00F0259
:104564001B096A702B7101220DF1070104F021F976
:1045740010B96B78042B03D901236B7000232B71C2
:10458400A2682046203AA91C04F026F90028C5D1C7
:104594002046E91C04F078F9C1E70323D0E700BF03
:1045A400E89200007FB505466946052004F070F9DD
:1045B400044610B1FF2004B070BD022002A904F02B
:1045C40067F9012836D12A464921284803F07AFAA6
:1045D400274B8DF80C40029300229DF800509DF863
:1045E4000860244C2946207804F0D5F848B33146B5
:1045F400607804F0D0F820B3A378042B03D09DF89E
:10460400031099421DD1E378042B03D09DF80B10BD
:10461400994216D12379042B0FD16379022B1BD134
:10462400154A1648492103F04DFA6079831E022B7E
:10463400C1D9BFE70028CFD0BCE79DF8021099424A
:10464400EBD00132032A04F10604CBD10C484921F2
:1046540003F038FA0120AEE7032B05D0094A0A49D2
:10466400042B08BF0A46DCE7084ADAE74EA200003A
:1046740003010303C1A2000030A2000099A20000BC
:10468400ACA2000035A2000047A200002BA200004B
:1046940008B54FF47F03D3F83031092B01BF4FF035
:1046A40050230022C3F81421C3F8182104F013F98D
:1046B40028B10122474BC3F8382AC3F878254FF4B0
:1046C4007F03D3F83021092A07D1D3F83431012BE1
:1046D4001EBF01223F4BC3F8782504F0FCF818B143
:1046E4000E223D4BC3F8E42E4FF47F03D3F8303150
:1046F400092B06D10022374BC3F80C270122C3F83B
:1047040010270022D30003F57F03D3F800130131EF
:1047140008D0D3F800130132D3F80433B2F5807F04
:104724000B60EFD12D4BDA69D1073AD52C4BD3F876
:104734000024012AFBD1C3F80425D3F80024012A5C
:10474400FBD1264BDA69D20708D5DA69244922F06D
:104754000102DA61D1F80024012AFBD11A6A01327C
:104764000AD11A6A22F0FF0242F020021A621C4A9D
:10477400D2F80034012BFBD10022194BC3F80425D5
:10478400D3F80024012AFBD1BFF34F8F1549164BF0
:10479400CA6802F4E0621343CB60BFF34F8F00BFDB
:1047A400FDE71B6A0133C1D00E4BD3F88C2042F4D1
:1047B4004062C3F88C20D3F8882042F47002C3F816
:1047C4008820BFF34F8FBFF36F8F084B084A1A60DE
:1047D40008BD00BF0040005000A003500080FF004F
:1047E4000090035000ED00E00400FA05A845012004
:1047F4000090D003044B1A7922B9012218601A716F
:104804000248704702487047B06601200000AD0BB3
:104814000C00AD0B4FF05023D3F8002110B552B16A
:104824000020C3F80001D3F800210122C3F80823B3
:10483400114B1B6898474FF05023D3F804218AB1D9
:104844000022C3F80421D3F80421D3F81824D3F8A0
:10485400181402F00302012A4FF0020103D1C3F835
:1048640018159A6010BDC3F80813034B0120BDE866
:1048740010401B68184700BFB0660120F0B54FF028
:104884002003EFF3118683F31188BFF36F8F0E4972
:104894000C68E3439BB2A3B10022D5B223FA05FC12
:1048A4001CF0010F174602F10102F6D00123AB40C0
:1048B4002343077005480B6086F31188BFF36F8F9D
:1048C400F0BD0348F8E700BFB86601200000AD0B57
:1048D4000200AD0B012303FA00F0C3B293B14FF011
:1048E4002003EFF3118183F31188BFF36F8F064A1E
:1048F400D36C23EA0003D36481F31188BFF36F8F71
:104904000248704702487047BC6601200000AD0BA6
:104914000400AD0BF0B50021FF220127124E4FF029
:104924002003EFF3118583F31188BFF36F8FCCB2AB
:1049340007FA04F322FA04F4E40709D485F311888E
:10494400BFF36F8F9A4301F10101E8D107480AE0F0
:10495400F46C2342F2D12343F364017085F311888C
:10496400BFF36F8F0248F0BDBC6601200200AD0B9F
:104974000000AD0B0022034BC3F88425C3F80425C3
:10498400704700BF00900350044AD2F80834DB0794
:10499400FBD50160BFF35F8F704700BF00900350E9
:1049A40008B5C0F30B0383B90222094BC3F884256D
:1049B400C3F804254FF0FF320260D3F80024D20775
:1049C400FBD5FFF7D7FF034808BD0348FCE700BF4A
:1049D400009003500000AD0B0A00AD0B012208B596
:1049E400054BC3F88425C3F80425FFF7CDFFBDE8C4
:1049F4000840FFF7BFBF00BF009003500E4B70B5D7
:104A040053F82040013053F82060A64200D870BD0E
:104A1400D4E900352846984765B1EB6830B10028E1
:104A2400B8BF4042FF28A8BFFF2018705A7842F050
:104A340001025A700834E8E7F892000070B50546A0
:104A440010B90024204670BD0378002BF9D00E4C19
:104A54000E4EB44208D10C4CB442F2D0204603F0BE
:104A6400C8FF50B91834F7E7204603F0C2FF10B16D
:104A74002368AB42E6D01834EBE72846216803F0FC
:104A8400FDFB0028EED1DDE77C8D00000C8E0000DC
:104A9400F7B505460E464FF02003EFF3118783F375
:104AA4001188BFF36F8F00F0CBFD0022042D98BF57
:104AB400184B044694BF53F82530174B00924521F8
:104AC4002A46164802F0FEFF3EB1F369C3F3080319
:104AD4001BB14521124802F0F5FF34B1204603F022
:104AE400DCFF034608B1027802B90E4B2246452189
:104AF4000D4802F0E7FF31462846FFF7EBFC87F349
:104B04001188BFF36F8F204603B0BDE8F040FEF775
:104B14006BBE00BF10930000D3A20000E9A2000006
:104B240016A30000E1A200003CA300000248034ACF
:104B34000021121A03F0E0BB68460120EC6E01204C
:104B4400012208B5094B02201A70FFF757FF04F041
:104B5400B3F80320FFF752FF00F012F9FBF77EFCD5
:104B6400034A137B23F00103137308BD2F6D012047
:104B7400284701202DE98048374BB7B003F5006979
:104B840089F3088883F30A880024E023334D4FF027
:104B9400010B85F82230EC772C766C76AC766B6A58
:104BA4002F4E43F4E0236B62FEF7AEFDFEF7EEFA00
:104BB4004FF0FF33AB62EB62FEF7BAFFFEF726FE5F
:104BC40040F20113274DADF8243006ABAB60CDE9BC
:104BD4001F4403F00DFF2046FFF710FF0120FFF7ED
:104BE4000DFFDFF898A000F07FFC1F4B6E624FF4BE
:104BF40020521E49059330465346CDE9034BCDE977
:104C04000144009400F08CF8737B804623F0040385
:104C14003046737303F0C2FF0F23154F4FF4A07295
:104C2400CDE902431349144B3846CDE904B4CDE928
:104C3400005400F075F87B7B524623F004037B7329
:104C4400414605F118033046C5E90633EF602C757B
:104C5400C5F80490FEF77AFA3098012000ED00E0E0
:104C6400284701200C670120A3A300003070012015
:104C740068460120F06E01203D4E0000454B0000C7
:104C840070B50E4B0E4CA34201D3002070BDD3E986
:104C9400030141EA000212F003020BD19D685A613C
:104CA400AA4201D11C33EEE75E6901320E605961FC
:104CB4000144F5E76FF01500E8E700BF1446012052
:104CC4001446012073B50C464FF02005EFF3118113
:104CD40085F31188BFF36F8F45695DB125602B683B
:104CE4004361836901338361002081F31188BFF339
:104CF4006F8F11E052EA030603D16FF00B002560B9
:104D0400F3E7CDE900230246083000F0FFFA18B9B2
:104D1400024B9B685B69236002B070BD0C67012085
:104D24002DE9FF410E9E00F1580506730426C0E9E3
:104D340016550025044646730D9EC0E90655867334
:104D4400D61D0C9A26F00706C0E919168560C573AE
:104D5400C56602920B9A01EB060801920A9A009228
:104D64004246FEF7D3F9054B65659B6803B11B6F9B
:104D74004046236704B0BDE8F08100BF0C67012002
:104D84002DE9F043294C2A4D87B02646AE4204F162
:104D940030040FD300F078FB4FF4004640F2E737BD
:104DA400224CDFF89090AC4220D307B0BDE8F0432A
:104DB40000F07EBB54F8043C059354F8103C049373
:104DC40054F8143C039354F8183C029354F81C3CD4
:104DD400019354F8203C009354E90A2354E90C014C
:104DE400FFF79EFF54F8303C5E65CEE7636A5A1CB9
:104DF4000DD00021384623EAE373C3FB060151EAD0
:104E0400C333D4F8008004D1404600F0EDFA3034C6
:104E1400C9E74FF47A720023FBF792F902460B4676
:104E240008F11800494600F0CBFCF0E714460120D5
:104E3400144601205D8B000008B5094C4FF0200298
:104E4400EFF3118382F31188BFF36F8F03F0FEFE3B
:104E54002062FDF75DF80028F0D1FEF79DF9EDE73B
:104E64000C6701202DE9F341044617461E464FF016
:104E74002003EFF3118883F31188BFF36F8FC368A6
:104E8400324A7BB180689168884219D057EA060398
:104E940018D188F31188BFF36F8F6FF00F0002B041
:104EA400BDE8F081916891F90E100133E3609368D5
:104EB4002161A36088F31188BFF36F8F0020EEE7B0
:104EC4002169F2E791F90E1090F90E306FF07E022D
:104ED4009942A8BF19469142B8BF11468B422EDDB4
:104EE40003F0E4FD054622464146CDE90076184824
:104EF40000F00CFA0028E1D04FF02003EFF3118604
:104F040083F31188BFF36F8F236821699C420AD011
:104F14004BB193F90E309942A8BF19466FF07E0346
:104F24009942B8BF1946A06803F0C0FD48B945B915
:104F340086F31188BFF36F8F6FF00A00AFE7002587
:104F4400D1E73146024800F03DFAF5E70C6701204D
:104F5400306D012038B583680446002B32D01C4ADA
:104F64009268934231D1DA7B013ADA73C368012B38
:104F740005D9013BC36000F09BFA002038BD4FF017
:104F84002003EFF3118583F31188BFF36F8F016959
:104F9400806803F08BFD204603F010FEA06058B13A
:104FA40090F90E2022610022826703F0F7FD294662
:104FB400084800F007FADEE7E06085F31188BFF3E4
:104FC4006F8FD8E76FF01500D8E74FF0FF30D5E7C3
:104FD4000C670120306D012038B504464FF02003E2
:104FE400EFF3118583F31188BFF36F8F03F0E6FDB0
:104FF40048B10022826703F0D1FD2946BDE838405C
:10500400044800F0DFB9D4E902329A4218BF0133F0
:10501400A360F2E7306D012013B54FF02004EFF3E5
:10502400118184F31188BFF36F8F846844B1013C0C
:10503400846081F31188BFF36F8F002002B010BD2C
:1050440052EA030406D181F31188BFF36F8F6FF026
:105054000F00F3E7CDE900230246024800F056F9B9
:10506400ECE700BF306D012010B5084C23685BB13C
:10507400FDF7D8F903462068054A03440021BDE83A
:105084001040136103F0F2BD10BD00BF486701205A
:105094000C67012038B50C4D2B4653F8284F9C4221
:1050A40000D004B9EC68AB6838B95A7BD20604D195
:1050B400A26912B9DA897F2A04D89C4201D0FFF789
:1050C400D3FF23466B6238BD0C67012008B590F905
:1050D4000D200146002A437B04DA03F07F03437367
:1050E40003F0FFFC044B9868431A58425841BDE84A
:1050F4000840FFF7CFBF00BF0C6701202DE9F04146
:10510400064615461C464FF02003EFF3118783F340
:105114001188BFF36F8F03F0F6FC87F31188BFF398
:105124006F8FB4F1FF3F08BFB5F1FF3F08D02A46A7
:10513400234606F118000349BDE8F04100F040BBE6
:10514400BDE8F0815D8B000070B590F90D2001463B
:10515400002A437B04DA03F07F03437303F0C1FCAA
:10516400154A4B7B144663F07F034B7354F8283F76
:10517400D06AA34207D1C1E900400160D16212E0C4
:105184009842F8D01B68002BF5D091F90E6093F982
:105194000E50AE42F4D0AD1B002DF1DD5868C1E9CC
:1051A4000030016059609068BDE87040431A58426D
:1051B4005841FFF76FBF00BF0C67012070B490F92E
:1051C4000D20437B002A2BDBDA0629D182693ABB06
:1051D400144A63F07F031446437354F8283FA342F0
:1051E4001CD1D16AC0E900410860D06212E08B4250
:1051F400F8D01B68002BF5D090F90E6093F90E508F
:10520400AE42F4D0AD1B002DF1DD5A68C0E9003286
:1052140010605860002070BCFFF73CBFD16AE9E71A
:1052240070BC70470C6701202DE9F04104460D461F
:105234004FF02003EFF3118883F31188BFF36F8FCE
:1052440000264FF4004740F2E73031464FF47A72BB
:105254000023E4FB0701FAF773FFB44202DD0228DE
:10526400B8BF0220064B1E61064B1860064B1D603A
:10527400FFF7FAFE88F31188BFF36F8FBDE8F08162
:105284000C6701204867012044670120014638B5B6
:105294004FF02003EFF3118483F31188BFF36F8F72
:1052A400154B164A98681568A84206D1FFF7DCFE2C
:1052B40084F31188BFF36F8F38BD00251560104A41
:1052C4001268BAB1C2897F2A14D8427BD20611D19E
:1052D4000C4A90F90E50126895420BDB0A4A904230
:1052E40008D01A698A4202DCFFF72EFFDEE7521A61
:1052F4001A61DDE70022FBE70C670120406701200B
:1053040048670120446701206846012010B50C4617
:10531400064B11469868064B1860DDE90223FFF737
:10532400EDFE2046BDE81040FDF74ABE0C670120A3
:1053340040670120F8B504464FF02003EFF31187CE
:1053440083F31188BFF36F8F437B49B2DA0617D119
:105354008269AAB903F07F03437303F0C2FB184ABE
:10536400437B154663F07F03437355F8283F8173ED
:10537400AB4222D1D06AC4E900500460D46217E081
:105384000020A17387F31188BFF36F8FF8BD8342A8
:10539400F1D01B68002BEED093F90E60B142F6D029
:1053A400761A002EF3DD5A68C4E9003214605C609A
:1053B4000120FFF76FFE0120E4E7D06AEAE700BFAF
:1053C4000C67012049B9EFF3058030B9054B5A6ADF
:1053D4009B689A4201D0FDF7F3BD81F31188BFF3B6
:1053E4006F8F70470C67012010B54FF02002EFF368
:1053F400118482F31188BFF36F8F427B510704D469
:1054040084F31188BFF36F8F10BD22F0040242733E
:10541400FFF7D4FE2146BDE810400148FFF7D2BF94
:10542400306D012070B50446183003F0F9FB4FF0DD
:105434002003EFF3118683F31188BFF36F8F94F980
:105444000D20637B002A05DA03F07F032046637393
:1054540003F047FB0B4D637BA86843F010036373B1
:10546400031B58425841FFF715FE86F31188BFF31A
:105474006F8FAB68A34203D1BDE8704003F0C6BB95
:1054840070BD00BF0C6701204FF02003EFF31181C2
:1054940083F31188BFF36F8F044B9A68D37B013B6E
:1054A400D37381F31188BFF36F8F70470C670120AA
:1054B40010B54FF02003EFF3118483F31188BFF389
:1054C4006F8F084B00209A68D37B0133D373FFF7A7
:1054D400E1FD84F31188BFF36F8FBDE8104003F042
:1054E40095BB00BF0C6701200021044B084603F163
:1054F4002802C3E90A22FFF797BE00BF0C67012008
:10550400F8B54FF02003EFF3118683F31188BFF34E
:105514006F8F19490C468868437B03F07F034373FC
:1055240003F0DFFA437B63F07F03437354F8283FAF
:10553400CA6AA34207D1C0E900421060C86212E0FF
:105544009342F8D01B68002BF5D090F90E7093F9B4
:105554000E50AF42F4D0ED1B002DF1DD5A68C0E9C6
:105564000032106058600120FFF794FD3046BDE81A
:10557400F840FDF725BD00BF0C67012050EA010388
:105584002DE9F04105460E4603D1FFF7B9FF00208F
:1055940033E06FF001044FF0FF33241A63EB01038F
:1055A400012C73F1000302DA03F07CFB44194FF081
:1055B4002003EFF3118883F31188BFF36F8F104F2B
:1055C400104BB8681860FFF781FDB8680E492A4689
:1055D4003346183000F0F4F8BA684046537B43F081
:1055E40010035373FDF7ECFC03F05CFB201A63EB30
:1055F4000303012873F10003C9DBBDE8F08100BF98
:105604000C670120406701205D8B0000B1F1FF3F72
:1056140008BFB0F1FF3F08B506D1084B9868FFF703
:1056240001FF4FF0FF3008BDFFF7A8FF4FF47A7376
:1056340080FB0303C00B40EA4340F4E70C670120FE
:10564400014B9868704700BF0C6701202DE9F041B9
:1056540004464FF02003EFF3118683F31188BFF360
:105664006F8F437B1A0705D586F31188BFF36F8FBD
:10567400BDE8F08123F0200242F00801D20920D1D4
:105684004173A36813B1204603F033FA04F1180000
:1056940003F0C6FA4FF0000804F15807A56DBD42A7
:1056A40000D0B5B90120FFF7F5FC104B9B68A3426D
:1056B400DAD1EFF30583002BD6D13046FDF780FC19
:1056C400D2E703F05F0343F00803437303F009FADE
:1056D400D7E7284603F00DFA05F1180003F0A0FA05
:1056E4002846C5F87880FFF769FDD7E70C670120E5
:1056F40008B50648064A0749121A02F0F2FDBDE849
:105704000840054A0549064802F0EBBD0045012062
:1057140064460120C4A3000000000000ACA3000004
:1057240000450120034B1B680BB9FCF77BBE00202E
:10573400704700BF4C670120124B10B51C689C4297
:1057440004D1FFF7EFFF6FF0004012E0FFF7EAFF2C
:105754000146002CF7D0D4E90402401A62EBE1734D
:10576400012873F100020BDBB0F1004F73F1000369
:10577400E9DA054B1B6913B19842A8BF184610BD5E
:105784000020F6E7AC4501200C6701200B4A30B538
:1057940052680368904209D043B1D3E90421D0E9A7
:1057A4000445121941EB0501C3E904214268136061
:1057B4005A600023C0E9003330BD00BFAC4501206E
:1057C400B3F1FF3F08BFB2F1FF3FF8B504461D46F1
:1057D40017465ED081604FF02003EFF3118683F308
:1057E4001188BFF36F8F6FF001034FF0FF3EDA1B98
:1057F4006EEB0502002A1EDB2B49D1E900209B1A1F
:105804006EEB0000DA1B60EB0500012A70F1000367
:1058140001DA01220020C4E90420244A1368D2F8E2
:1058240004C0934208BF002373B9C4E9002CCCF828
:10583400004054601AE0FFF775FF7A1C45F100053B
:10584400121845EBE070E6E7D3E90407D4E9041540
:10585400814275EB070E1DDA401A596867EB05079C
:10586400C3E90407C4E900310C605C601368934227
:105874000BD09C4209D1FFF75FFF18B10C4B1B6999
:10588400834202D00021FCF79BFD86F31188BFF30D
:105894006F8FF8BD091A65EB07056345C4E9041564
:1058A400C3D01B68C0E700BFE8470120AC45012016
:1058B4000C6701202DE9F8430546FFF7E7FC4FF09C
:1058C4002003EFF3118483F31188BFF36F8F244E09
:1058D400DFF894803560234DD8F8000032684045E5
:1058E4004FEAE277D5E9001E0BD050B1D0E9043C71
:1058F4009A4277EB0C0916DA9B1A6CEB070CC0E999
:10590400043C51184EEB0707C5E900170025356024
:10591400FFF712FF2946FCF753FD84F31188BFF308
:105924006F8FBDE8F88359184EEBE377D31A3360D1
:1059340000220023C0E90423C5E90017FFF726FF6E
:1059440084F31188BFF36F8F836898474FF0200367
:10595400EFF3118483F31188BFF36F8FBCE700BFAB
:105964004C670120E8470120AC45012010B54FF0F9
:105974002003EFF3118483F31188BFF36F8FFCF7D7
:1059840051FD054AD2E90031C01841F1000184F308
:105994001188BFF36F8F10BDE847012010B50A4C82
:1059A40023681BB101230020236010BD00F0D0F850
:1059B4000028F7D00138062803D8044B53F82000F8
:1059C40010BD034810BD00BF5067012024930000A0
:1059D400FE8FFFFFBFF34F8F0549064BCA6802F4E1
:1059E400E0621343CB60BFF34F8F00BFFDE700BFFE
:1059F40000ED00E00400FA054FF0FE33002130B45E
:105A0400064A074D074C2B6013602360064A074C77
:105A1400EB606368C2F8001530BC18470414845066
:105A2400001484500814845000008450B4450120AC
:105A3400024BD0E90012C3E900127047B4450120BB
:105A440010B5044630B16368DB0602D50023236039
:105A5400636010BD024B03485B689847F3E700BFDF
:105A6400B44501204093000068B143683BB1DB06B4
:105A740007D5BFF35F8F00230360184670470348C0
:105A84007047034870476FF4E0407047EA8FFFFFA8
:105A9400E98FFFFF10B5044620B1002211232260D4
:105AA400636010BD0148FFF7A7FFF6E768930000A5
:105AB400A0B1436883B1DB060CD50122D0E8EF3FE7
:105AC400C0E8E12F0029F9D1012BF7D0BFF35F8F94
:105AD4000020704703487047034870476FF4E04064
