:020000021000EC
:10020000282600206125010091870100C1250100F9
:10021000C1250100C1250100C1250100C125010042
:100220000000000000000000000000004523010065
:10023000C125010000000000ED2201009D1A01000F
:100240002125010021250100212501002125010092
:100250002125010021250100212501002125010082
:100260002125010021250100212501002125010072
:100270002125010021250100212501002125010062
:100280002125010021250100212501002125010052
:100290002125010021250100212501002125010042
:1002A0002125010021250100212501002125010032
:1002B0002125010021250100212501002125010022
:1002C0002125010021250100212501002125010012
:1002D0002125010021250100212501002125010002
:1002E00021250100212501002125010021250100F2
:1002F00021250100212501002125010021250100E2
:1003000021250100212501002125010021250100D1
:1003100021250100212501002125010021250100C1
:1003200021250100212501002125010021250100B1
:1003300021250100212501002125010021250100A1
:100340002125010000000000000000000000000066
:10035000000000000000000000000000000000009D
:10036000000000000000000000000000000000008D
:10037000000000000000000000000000000000007D
:10038000000000000000000000000000000000006D
:10039000000000000000000000000000000000005D
:1003A000000000000000000000000000000000004D
:1003B000000000000000000000000000000000003D
:1003C000000000000000000000000000000000002D
:1003D000000000000000000000000000000000001D
:1003E000000000000000000000000000000000000D
:1003F00000000000000000000000000000000000FD
:10040000DEE61E284CBBCE8F025B00003C000000E5
:1004100000FE0000010000000002010000020100D7
:10042000FFFF02910000000000000000000000003B
:0C043000000000000000000000000000C0
:10043C0053B94AB9002908BF00281CBF4FF0FF313F
:10044C004FF0FF3000F00CB8ADF1080C6DE904CEA4
:10045C0000F024F8DDF804E0DDE9022304B0704775
:10046C00704700BF2DE9E04F2746A046A146A246A3
:10047C00A346A446A2B02DEC000A84F300882546BE
:10048C002646A447EFF3148515F0080F18BFB0EEFD
:10049C00400A3DEC000A22B0BDE8E08F2DE9F047A0
:1004AC0086468C460846089E154674461946002B0F
:1004BC0040F0C1808542B2FA82F245D94AB1C2F10C
:1004CC00200300FA02FC954094402EFA03F343EA11
:1004DC000C0C4FEA154EA8B2230CBCFBFEF80EFB1D
:1004EC0018CC08FB00F943EA0C43994528D9EB18C2
:1004FC0008F1FF3704D2994502D9A8F102072B4421
:10050C00A3EB0903A4B2B3FBFEFC0EFB1C330CFBE8
:10051C0000F044EA0344A04214D92C190CF1FF3327
:10052C0004D2A04202D9ACF102032C44241A43EAAF
:10053C0007401EB1D440002334607360BDE8F087DF
:10054C004746DDE76346F1E792BB431B01214FEAC7
:10055C00154EAFB2200CB3FBFEFC0EFB1C330CFB98
:10056C0007F840EA0343984561D9EB180CF1FF30CA
:10057C0004D2984502D9ACF102002B44A3EB08033A
:10058C00A4B2B3FBFEFC0EFB1C330CFB07F744EAD6
:10059C000344A7424DD92C190CF1FF3304D2A742C6
:1005AC0002D9ACF102032C44E41B43EA0040C0E73F
:1005BC00C2F120039540944020FA03F12EFA03F384
:1005CC004FEA154E9040AFB20343B1FBFEFC0EFB5D
:1005DC001C10190C0CFB07F841EA0041884522D984
:1005EC0069180CF1FF3004D2884502D9ACF1020035
:1005FC002944A1EB08019BB2B1FBFEFC0EFB1C11C4
:10060C000CFB07F743EA01439F420ED9EB180CF1A0
:10061C00FF3104D29F4202D9ACF102012B44DB1B07
:10062C0041EA004193E76046E3E76146F7E760463D
:10063C00A4E76346B8E7834206D916B900210846F9
:10064C007CE7C6E900E0F9E7B3FA83F78FB9834298
:10065C0001D3724508D8BEEB020460EB0303012002
:10066C009C461EB9002169E73846FAE7C6E9004CFA
:10067C00F8E7C7F1200CBB400EFA07F522FA0CF490
:10068C002EFA0CF1BA401C4320FA0CF3B8404FEA96
:10069C00144901431FFA84FEB3FBF9F809FB183027
:1006AC000B0C08FB0EFA43EA00439A4540D9E318B9
:1006BC0008F1FF3004D29A4502D9A8F10200234474
:1006CC00A3EB0A0389B2B3FBF9F809FB183308FB57
:1006DC000EFE41EA03418E452CD9611808F1FF3317
:1006EC0004D28E4502D9A8F10203214443EA00400A
:1006FC00A1EB0E01A0FB02984145CE46434602D326
:10070C0006D14D4504D20138B9EB020E68EB040357
:10071C00002EA7D0B5EB0E0261EB030101FA0CFC25
:10072C0022FA07F3F9404CEA0303C6E9003199E7D2
:10073C004046C5E74346D9E7436810B503F00303C9
:10074C00032B0446816002D02BB1002000E000682E
:10075C000023636010BD45220449054807F08BFE59
:10076C004521024807F050FFEFE700BF73910100ED
:10077C00969101000B6801330B60014B1B68184705
:10078C0000000020014B1860704700BF00000020E3
:10079C0007B50B46002102460191034801A900F060
:1007AC009BFA03B05DF804FB810701002DE9F84FBB
:1007BC00858B04462B07174661D4022905F00705E3
:1007CC0000F0C481AA46D4F81890A38BB9F1000F9D
:1007DC0070DA0022D4F8008023F00703C4E9002269
:1007EC0043F00103A383A38B002603F007055545B3
:1007FC0040F07E814FF0000AB8F1000F00F0E1806C
:10080C0043F0080304F1140B5846A38303F046FC91
:10081C0040B9B149B148AC2207F02DFEAC21AE482D
:10082C0007F0F2FE87F31188BFF36F8FBAF1000F58
:10083C0040F06581B8F1000F40F0768116B120468A
:10084C00A749B0474FF02003EFF3118783F31188CA
:10085C00BFF36F8F584603F013FC40B99E499F4875
:10086C00812207F008FE81219B4807F0CDFE5846F7
:10087C0003F022FCA38B23F00803A38356E0012989
:10088C000CBF45F0100545F02005858304F11400DC
:10089C0003F004FC40B990499048AC2207F0EBFD02
:1008AC00AC218D4807F0B0FE87F31188BFF36F8F32
:1008BC00BDE8F88F03F00702511F012921D8002150
:1008CC00062AD4F80080C4E9001116D1424603E090
:1008DC00E18B12680131E183002AF9D123F007037F
:1008EC0043F002022046A28307F0D2FD00283FF419
:1008FC007AAF42F02002A28375E723F007039AB285
:10090C00F0E7042A1ED123F007039AB22046A283F3
:10091C0007F0BEFD10B142F02002A2830026A38B8B
:10092C00B04603F00705554540F0E280B4F81CA032
:10093C001AF0100F00F001812AF01003A3830AF0C3
:10094C00070A40E740F21B126649644807F093FD22
:10095C0040F21B11634807F057FEDFE755B16149C0
:10096C005E484FF4AB7207F086FD4FF4AB715D48F7
:10097C0007F04AFE236853B95A49584840F25712B7
:10098C0007F079FD40F25711564807F03DFE2369F8
:10099C001E6856B9534951484FF4AD7207F06BFDC0
:1009AC004FF4AD714F4807F02FFEA38B062D23F0AB
:1009BC00070343F006039BB2A38340F095804FF0EE
:1009CC0000094FF0000AD046002E7FF419AFADE7B6
:1009DC00022D0AD04349414840F25D1207F04BFD0D
:1009EC0040F25D113F4807F00FFEE38B53B13D49D8
:1009FC003A484FF4AF7207F03EFD4FF4AF713948EF
:100A0C0007F002FE23695E6856B93649334840F256
:100A1C00611207F030FD40F26111324807F0F4FD2D
:100A2C00A38B042D23F0070343F004039BB2A38391
:100A3C00C5D04FF000080425C14659E0012D0AD05D
:100A4C00284926484FF4B27207F015FD4FF4B271E5
:100A5C00244807F0D9FD236853B922491F4840F2B6
:100A6C00651207F008FD40F265111E4807F0CCFD39
:100A7C0023699E6856B91B4918484FF4B47207F0A5
:100A8C00FAFC4FF4B471174807F0BEFDA38B052D8B
:100A9C0023F0070343F005039BB2A3838FD04FF0E1
:100AAC0000080525C14623E040F26B120D490B48A6
:100ABC0007F0E1FC40F26B110A4807F0A5FDA38B8F
:100ACC0003F00702AA423FF431AF4FF0000815467D
:100ADC004646C1460CE000BFD09101009691010042
:100AEC00850B0100AE9101004FF000080625C146B0
:100AFC00A268002A3FF47EAE4FF0010A80E6A1689E
:100B0C0000293FF497AE0F6800293FF493AE4B4693
:100B1C002A462046D1F804A0D0471FB13B6839467D
:100B2C001F46F1E73B46FAE741464B462A4620462C
:100B3C00D8F8008007F0D8FC7CE61AF0200F3FF4C0
:100B4C00A5AE2AF02003A3830AF00705204607F080
:100B5C009FFC00283FF49AAE01380428A4D801A3C6
:100B6C0053F820F0D1070100B50A01006909010012
:100B7C00DD090100490A0100F8B504460D4600F1F3
:100B8C0014064FF02003EFF3118783F31188BFF3A2
:100B9C006F8F304603F074FA40B90A490A48812233
:100BAC0007F069FC8121074807F02EFD304603F061
:100BBC0083FA3A462046A5610121BDE8F840FFF7CB
:100BCC00F5BD00BFD0910100969101002DE9F047D1
:100BDC0004460F4607F078FC051E6DDB04F1140982
:100BEC004FF02003EFF3118A83F31188BFF36F8F5B
:100BFC00484603F045FA40B934493548812207F09C
:100C0C003AFC8121314807F0FFFC484603F054FAC6
:100C1C004FF6FF72E38BA68B934206F007064ED07D
:100C2C00022E1FD135464FF001080133E3834846AD
:100C3C0003F034FA40B925492548AC2207F01BFCD7
:100C4C00AC21224807F0E0FC8AF31188BFF36F8FC8
:100C5C00B8F1000F30D0002332463946204607F059
:100C6C0043FC29E0062E0ED8DFE806F004180D0D23
:100C7C00042C040000233B606368A3B9C4E900772B
:100C8C00A6B135460CE01349114840F2C91207F0E1
:100C9C00F2FB40F2C9110F4807F0B6FC6FF00405E7
:100CAC004FF00008C3E71F606760E9E75246022176
:100CBC002046FFF77BFD35462846BDE8F0876FF0F0
:100CCC000A05EDE76FF08505EAE700BFD09101005A
:100CDC0096910100AE9101002DE9F04F81468B46B3
:100CEC0017461C46002595B0387808B9284657E3B6
:100CFC007B1C2528039306D05946C8470028C0F210
:100D0C004F83013504E2182200210EA807F09DFD47
:100D1C007B78252B7DD0002398469E469C461E460C
:100D2C00781C014610F8012B2B2A00F0A18000F250
:100D3C009880202A00F09F80232A00F09F802BB1FE
:100D4C009DF8403043F040038DF84030B8F1000F6F
:100D5C0005D09DF8403043F020038DF84030BEF1B3
:100D6C00000F05D09DF8403043F010038DF8403053
:100D7C00BCF1000F05D09DF8403043F008038DF80E
:100D8C0040302EB19DF8403043F004038DF84030D4
:100D9C009DF8403003F04400442803D16FF38613D0
:100DAC008DF840309DF840302A2A43F080038DF8AE
:100DBC0040307FD19DF841204B1C42F001028DF850
:100DCC0041201A782E2A0CBF012100219DF84120C8
:100DDC0061F341028DF8412078D15A782A2A6ED0DD
:100DEC0000224FF00A0C0133194611F8010BA0F147
:100DFC003006092E40F295809DF840101292C1F3F6
:100E0C00400040EAD2700A4660F341028DF840205F
:100E1C005CE0BA1C03928DF843309DF84130DA0740
:100E2C0040F12E8154F8048BB8F1000F07DA9DF8CD
:100E3C004020C8F1000842F004028DF840205E0703
:100E4C0040F1278154F804ABBAF1000F80F22681EF
:100E5C009DF841306FF341038DF841304FF0FF3A6C
:100E6C001CE12D2A0DD0302A7FF469AF012358E7FD
:100E7C004FF0010C55E74FF0010E52E74FF001080F
:100E8C004FE701264DE703460EFB0262303A184647
:100E9C0010F8016BA6F1300CBCF1090FF3D9994293
:100EAC008FD09DF840101192D20F62F341018DF852
:100EBC00401086E70B4600224FF00A0EE7E79DF83C
:100ECC004120023342F004028DF841201A786C2A3A
:100EDC0047D02BD8682A31D06A2A4BD04C2A51D013
:100EEC001A4612F8013B782B03928DF843309DF88B
:100EFC00412000F2BE806D2B51D8692B00F2B980D5
:100F0C00572B67D8412B03D0453B022B00F2B18005
:100F1C0004229DF8423062F302038DF84230012323
:100F2C0073E00CFB02020B46303A5DE7742A25D0C5
:100F3C007A2AD5D106219DF841200CE05A78682AEE
:100F4C009DF8412006D1012161F3C6028DF84120A4
:100F5C000233C5E7022161F3C6028DF8412001334B
:100F6C00BEE75A786C2A9DF8412001D10421EBE7A9
:100F7C000321F0E705219DF84120ECE707219DF8BE
:100F8C004120E8E7BDF8402022F4F04222F00202B2
:100F9C0042F4804242F00202ADF84020DFE76E3BA3
:100FAC00D9B201238B4040F282410B4237D113F06E
:100FBC00240F51D1D8075CD503219DF8423061F341
:100FCC0002038DF8423002F07803A3F140014B424A
:100FDC004B411AE00120A3F15801C9B200FA01F10A
:100FEC0011F4624F94D140F6010631421DD111F437
:100FFC00043F3ED09DF8423060F3020302F07802C9
:10100C00402A8DF8423034D000239DF84020C2F3A2
:10101C0040010B4363F341028DF84020FDE60221B1
:10102C009DF8423061F30203E8E702209DF842107C
:10103C0002F0780260F30201402A8DF8421002BFE0
:10104C009DF8401041F001018DF84010632BDBD16D
:10105C00131E18BF0123D8E703219DF8423012F06C
:10106C00780F61F302038DF8423014BF0123002383
:10107C00CBE79DF8403043F001038DF84030C3E7D7
:10108C009DF94020002AACBF4FF0FF38DDF84480BA
:10109C00D5E698077FF5E2AEDDF848A00023CDE950
:1010AC0011339DF842309DF8411003F00703012BDA
:1010BC00C1F3C30133D1CB1E042B04D8DFE803F0FA
:1010CC00104646101000236801294FEAE372CDE95F
:1010DC000E320BD103F0FF030E9300230F9307E0A6
:1010EC0054F8043BDA17CDE90E3202E0022911D094
:1010FC0004349DF8403013F0030647D03A46594665
:10110C004846039B07F069FA0028C0F24981054460
:10111C00039FE9E51AB20E9243F3C033DEE7022BCC
:10112C0024D1CB1E042B04D8DFE803F018101018C0
:10113C00180001294FF0000254F8043B14D0022986
:10114C00CDE90E32D5D19BB20E93D2E7073424F001
:10115C000704F4E80223CDE90E23CAE754F8043B54
:10116C000E9300230F93C4E7DBB2BCE7042B08D12A
:10117C00073424F00704D4E900230834CDE90E2306
:10118C00B7E7032BB5D154F8043BDDE79DF84300DA
:10119C007828BDD862281CD825283FF4ADAD582836
:1011AC00B6D1DDE90E010DF13603009310AA08ABA0
:1011BC0007F0CDF9BAF1000F074680F29980002FA5
:1011CC00A6D00DF13603D81B002E00F0C0800130E4
:1011DC00BDE0633815289BD801A252F820F000BF5F
:1011EC00C1120100D31201001D1101001D110100DB
:1011FC001D1101001D110100D31201001D11010070
:10120C001D1101001D1101001D1101005F130100D2
:10121C00F71201001D1301001D1101001D11010029
:10122C00451201001D110100F71201001D110100F2
:10123C001D110100F7120100BAF1000F0E9F35DBF2
:10124C005146384607F0BAFA07EB000A002F3FF474
:10125C005FAF00269DF8423013F01002059200F0AB
:10126C00928002305B06119A48BF129B104448BF13
:10127C00C018B8F1000F049240F39F809DF84020F5
:10128C00A8EB0008C2F380035007069300F1958089
:10129C00510640F188803EB159463046C847002877
:1012AC007EDB069B01351E4630227DE0384607F07A
:1012BC007EFAC9E70E9B002601208DF8203008AF7E
:1012CC000DF1210AC6E719075ABFC3F300135E01DB
:1012DC002B26DDE90E23002BBFF663AF524263EBE6
:1012EC0043032D26CDE90E235BE7002659E70026A4
:1012FC009DF840200DF13603DB1B6FF386129A45E7
:10130C008DF840207FF65BAFAAEB0303119356E7F1
:10131C000E9890B30DF136030093002108AB10AA80
:10132C0007F015F9BDF84230BAF1000F03F0EF03E6
:10133C0043F4F04343F010030746ADF84230D6DADD
:10134C0000283FF4E5AE00260DF13603181A9A4634
:10135C0080E70E9B07293FF6DBAEDFE801F00C04BB
:10136C00060C08080C0C1D70D2E61D80D0E6EA179E
:10137C00C3E90052CCE61D60CAE62F4F064607F1C2
:10138C00050A052066E71A0748BF01306AE71046D0
:10139C00079306925946C847DDE90623002804DA6C
:1013AC0015B0BDE8F08F202243461946002903F101
:1013BC00FF33ECDC454498466D1A2EB15946304645
:1013CC00C8470028ECDB01359DF84230DA0601D421
:1013DC001B0705D559463020C8470028E0DB0135EE
:1013EC00059B33B159469DF84300C8470028D7DB0D
:1013FC000135049E2E4405E059463020C84700288C
:10140C00CEDB0135731B002BF6DC53463A465946AE
:10141C00484607F0E2F80028C2DB0544A844A8EBD4
:10142C000503002B7FF774AE59462020C8470028CF
:10143C00B6DB0135F3E700BFF6910100044608B5B1
:10144C004FF02002EFF3118382F31188BFF36F8FFB
:10145C0007F05AF9204601F025FB034807F00BF87A
:10146C0000F0F2FFFCE700BFFC9101004FF02002FE
:10147C00EFF3118382F31188BFF36F8F0121044ABC
:10148C00C2F8401583F31188BFF36F8F00207047AB
:10149C000090035020B1034B800143F00103184727
:1014AC00704700BF008E010084B004AB03E9070055
:1014BC009DF80430062B07D10122044BC3F80025FC
:1014CC00BFF34F8F20BFFDE704B0704700400050C2
:1014DC00F8B505464FF02003EFF3118683F311881E
:1014EC00BFF36F8F174802F0CBFD40B91649174870
:1014FC00812206F0C0FF8121134807F085F81148BE
:10150C0002F0DAFD124B134F1C688CB90D4802F037
:10151C00C5FD40B90C490D48AC2206F0ACFFAC211E
:10152C00094807F071F886F31188BFF36F8FF8BD87
:10153C00D4E90123002D18BF13460BB13878984716
:10154C002468E2E728020020D09101009691010066
:10155C002C020020340200201FB50F4B1A68BAB9B8
:10156C0001221A600D4A01AB07CA83E807000C4A36
:10157C004AB193E8070007F04FF8002005B05DF87A
:10158C0004EBFFF7A5BF82F31188BFF36F8FF4E76D
:10159C0005B05DF804FB00BF0400002034020020FD
:1015AC0025860100F0B589B06E46214C01460546F2
:1015BC00304607F049F896E8070084E807002078E1
:1015CC00264698B300201B4B18606B1C19D0914217
:1015DC0008D219491948CB2206F04DFFCB211648E9
:1015EC0007F012F84FF4004C0021A76814480023B0
:1015FC00E7FB0C01134AFEF71BFF0121281A04F02C
:10160C0069F803F029F90120FFF762FF96E807005B
:10161C0005AB83E807000C4A1AB193E80700FFF703
:10162C0043FFFFF799FF03F06BF9207809B0F0BD89
:10163C003402002004000020299201009691010040
:10164C003F420F0040420F00B514010010B507488F
:10165C0002F028FA064C074B1860204601F002FDF8
:10166C002046FFF78FF8002010BD00BF54920100F8
:10167C0085160100400200200A2838B50446074DA3
:10168C0004D1286883680D215B68984728688368B3
:10169C00E1B25B689847204638BD00BF400200208D
:1016AC0037B540230C460A490093411A49110546A7
:1016BC002346084A084806F0DFFF011E05DA2846D3
:1016CC00234603B0BDE83040184703B030BD00BF1F
:1016DC005C020020EF860100C88A010038B5CCB24C
:1016EC00012C054608D9084908487E2206F0C3FE9D
:1016FC007E21054806F088FF0C222B6904FB02337F
:10170C00986C00F0070038BD5B92010096910100C7
:10171C00F8B5CCB2012C0546174606690AD918490A
:10172C00184840F2531206F0A6FE40F2531114482A
:10173C0006F06AFF4FF02003EFF3118283F3118858
:10174C00BFF36F8F0C2101FB04639B6C13F0C00380
:10175C0008D09F4206D082F31188BFF36F8F4FF0F1
:10176C00FF30F8BD01234C432644B36482F3118847
:10177C00BFF36F8F6B6823445B6898470020F0E7DA
:10178C005B9201009691010070B50D460649044626
:10179C00411A491140220548FFF7BAFF2B46014672
:1017AC002046BDE8704018475C020020C88A010042
:1017BC0070B5002201210446052000F0E9FD05204A
:1017CC0000F0CAFD0F4802F005F80F4B984215D1F6
:1017DC0002F020F826690D49304606F09BFE0028E1
:1017EC000BDB012524690949B56404F1200006F0DE
:1017FC0091FE002801DB0020656570BD6FF00400D0
:10180C00FBE700BF511801000000AD0B088E010072
:10181C0001460C2300224B43084870B5C4184833CA
:10182C001844D4E91056226406F013FF2DB1324649
:10183C002B46BDE870400248184770BD5C02002082
:10184C00C88A0100012808B506D0032808D0A0B921
:10185C000F4B9B6C5B0719D1BDE80840FFF7D8BF55
:10186C000C4940F266220C4806F005FE40F2662157
:10187C00BDE80840074806F0C7BE064940F26A2298
:10188C00054806F0F8FD40F26A21F1E708BD00BFFB
:10189C005C0200205B9201009691010008B54FF0AC
:1018AC002003EFF3118183F31188BFF36F8F124A7A
:1018BC00136843F002001060DA0708D481F3118832
:1018CC00BFF36F8FBDE80840012001F0C1BF4FF09E
:1018DC005023D3F80C24D3F80C34D307EED5074897
:1018EC0006F0B7FE81F31188BFF36F8FBDE8084097
:1018FC000020FFF78DBF00BFB4020020A40200201F
:10190C001FB500220123CDE902236B46084ACDF80E
:10191C0000D0CDF804D006F0DDFE002805DB4FF436
:10192C0080420023684602F097FD05B05DF804FB89
:10193C000D870100074BD3E8EF2F22F00201C3E81B
:10194C00E01F0028F7D1D30702D4012001F0D2BF49
:10195C00704700BFB40200202DE9F0410122064679
:10196C004449D1E8EF3FC1E8E02F0028F9D19BB9F9
:10197C00414942484B60CB608A60FFF727F9002849
:10198C000ADA3F493F4840F2262206F074FD40F245
:10199C0026213B4806F038FE76B3731E012B5CD82B
:1019AC00012E07D14FF05023D3F81C3403F003035E
:1019BC00022B21D007F00FF80546F8B9324B1B78F3
:1019CC00E3B14FF0502302220746C3F808234FF02F
:1019DC005024DFF8B880D4F81834D4F81824D20383
:1019EC0016D503F00303022B01D0012E10D175B3D1
:1019FC0087F31188BFF36F8FBDE8F0814FF02003A0
:101A0C00EFF3118783F31188BFF36F8F0125DEE7A6
:101A1C00C5B1384600F026FDD4F81835DBB2012BE1
:101A2C00D9D1D4F80421002AD5D00022C4F804213D
:101A3C00D4F804210222C4F818252022C8F88021E9
:101A4C00A360C8E70021212003F0F2FBE4E74FF08C
:101A5C0050230222C3F80423CEE7094909484FF466
:101A6C000E7206F008FDBDE8F0414FF40E7104480B
:101A7C0006F0CABD54020020440200207C02002063
:101A8C005B920100969101002513002000E100E01B
:101A9C0010B5064C06482146172206F0ECFC2046F1
:101AAC00BDE81040172106F0AFBD00BFB292010097
:101ABC0096910100044A1368C81A20F07F40034431
:101ACC00136003F047BE00BFC80200202DE9F047A9
:101ADC004FF480374FF00009860000F1500406F1F6
:101AEC005026A40006F58036A4B204F15024D6F892
:101AFC004035DFF86C8021F07F4504F58034874059
:101B0C00D8F804A5A3EB0A0323F07F432AF07F4205
:101B1C00012BC6F8402502D1132006F094FF0AF1E0
:101B2C000202AB1A23F07F43B3F5000F88BF1546B2
:101B3C00C4F80090236825F07F43C8F84473C6F8B6
:101B4C004035D8F804359A4506D0EB1A023B23F001
:101B5C007F43B3F5000F01D8BDE8F0872B46CFE7E4
:101B6C0000500150114B0020D3F8042310B5D203C0
:101B7C001BD5D3F84021C2B1C3F84001D3F84021A2
:101B8C004FF48032C3F84823D3F84025D3F804151A
:101B9C008B1A23F07F43B3F5000F98BF1146044B0B
:101BAC001C6818600CB15A68A04710BD0050015059
:101BBC00C002002038B500254FF480334FF40012DA
:101BCC000C4C0121C4F80855C4F804330A4B1520F9
:101BDC00C3F880212A4600F0DBFB152000F0BCFB8B
:101BEC000123064AA360022023601360FFF7B4FEB2
:101BFC00284638BD0050015000E100E0BC02002036
:101C0C00134A144910B4B0F1FF3F14BF03460B46FE
:101C1C00D2F80405104A1468001B20F07F42000221
:101C2C0013D4013B8B42A8BF0B4623EAE37301326A
:101C3C000A4813440A4A8B4294BFE1186118106099
:101C4C00002010BC5060FFF741BF0023EFE700BF3E
:101C5C0000500150FFFF7F00C8020020C11A010094
:101C6C00C0020020044BD3F80405044B1B68C01AB7
:101C7C0020F07F40704700BF00500150C802002088
:101C8C00F7B500281C4614BF4FF400534FF4004323
:101C9C008A420BD294222149214806F0ECFB942174
:101CAC001E4803B0BDE8F04006F0AEBC33D00D4684
:101CBC001C4E68B305F5E0770135AA4246F827407B
:101CCC00F7D102FB03F0013A4B430090164806F0A3
:101CDC00D2FB164B14F0100F1549164818BF1946B5
:101CEC0006F0C9FB7221144806F0C5FB7721124897
:101CFC0006F0C1FB7821104806F0BDFB6C210E48A4
:101D0C0006F0B9FB0D4803B0BDE8F04006F0B3BBDC
:101D1C0005F5C077D0E703B0F0BD00BF0393010019
:101D2C00969101000030005024930100EE920100C6
:101D3C00F7920100D59401003E930100209F010011
:101D4C0010F0800F10B500F500720ED0124B53F846
:101D5C002230002B04DA03F00303023B012B16D9CB
:101D6C00012106F0D9FC002010BD012100F01F0458
:101D7C00A1404309094C203344F82310BFF34F8F83
:101D8C00BFF36F8F044B312853F82230E1D1024B53
:101D9C00034943F82210E3E70030005000E100E073
:101DAC000001008030B54FF40034204D85B0294639
:101DBC001F4806F060FBD4F800121E4806F05BFBCF
:101DCC00D4F804121C4806F056FB10220021684679
:101DDC0006F03BFDD4F8003268460093029500F003
:101DEC00C9FE012000F0F6FE002000F0DFFE00200E
:101DFC0000F004FF0121002000F01EFF00F012FF94
:101E0C00D4F804420D4806F036FB0820FFF798FF83
:101E1C0024F00104BFF34F8FBFF36F8F640864008D
:101E2C002046214622462346FEF71CFB00020200F8
:101E3C0041930100589301006D9301008B930100B5
:101E4C002DE9F041514806F016FB002140F2171322
:101E5C0008460422FFF714FF4D4D40F207132022D1
:101E6C0004210020FFF70CFF4A4806F004FBC5F3E1
:101E7C000E04494BC4F500449C4208D247494848DB
:101E8C00822206F0F8FA8221444806F0BDFB454E4A
:101E9C00C4F34314D6F80035C5F3C435DA050AD5B6
:101EAC0041493F484FF4BD7206F0E5FA4FF4BD715D
:101EBC003D4806F0A9FBD6F80435DB050AD53A49AE
:101ECC00374840F27B1206F0D6FA40F27B113648C6
:101EDC0006F09AFB334B3548C3F80055C3F804455C
:101EEC00D3F80015D3F80425520106F0C4FA29489A
:101EFC0006F0C1FA00F070F8014610B12C4806F05B
:101F0C00BAFA00242B4806F0B6FA40F2171308224E
:101F1C0000210120FFF7B4FE224D40F207132022CE
:101F2C0008210120FFF7ACFE1A4806F0A4FAC5F808
:101F3C008044214806F09FFA204FC5F8C044204E3B
:101F4C00204DDFF884806B792A6853B130462146E6
:101F5C001E4B06F090FA2879FFF7F2FE98B91C4850
:101F6C0005E030463B46214606F085FA40460134F2
:101F7C0006F081FA1C2C05F10805E4D10548BDE8F2
:101F8C00F04106F078BA1348F1E700BFB6930100B0
:101F9C00E0FF0100209F01002000000003930100DE
:101FAC009691010000300050DA9301000C9401006E
:101FBC005294010082940100A4940100FB92010050
:101FCC00CB940100408E0100D8940100C094010014
:101FDC00E7940100DF94010000220248114603F04F
:101FEC00F9BC00BFCC02002070B50C461546064665
:101FFC0050B96FF01500BDE87040714672467346DB
:10200C00F4468EF3008C7447002AF2D006F0CAFB1B
:10201C000128EED0B4F5803F16D32B19B3F5813FD0
:10202C0006D90B4A94420AD902F61D2293420BD8C8
:10203C002A462146304606F0FDFB0020DBE7054A28
:10204C00944201D90932F1E74FF0FF30D3E700BFDA
:10205C000302FF002F01FF0070B506460D46144623
:10206C0006F0A0FB012804D0204606F09BFB0128BB
:10207C000AD16FF01500BDE8704071467246734688
:10208C00F4468EF3008C744723462A4631460348A7
:10209C0003F0D4FC2368AB42EDD0EAE7CC0200207D
:1020AC002DE9F04F81460D4685B061B96FF01504EE
:1020BC00204605B0BDE8F04F714672467346F446B3
:1020CC008EF3008C744706F06DFB0128EED1284688
:1020DC0006F068FB0128E9D04FF00008DFF840B0AB
:1020EC00DFF840A001AF5BF8046B9AE807004E44A0
:1020FC0087E807000C223946304606F074FB04468C
:10210C0000B93EB908F10108B8F1050FEBD16FF039
:10211C000D04CDE73C223146284606F08BFBC7E781
:10212C00208F0100B08D0100014803F04BBC00BFB3
:10213C00348F010010B5044618B90D4B0D485B687F
:10214C009847616831F004030CD008290AD011F0CB
:10215C00020108D02146084801F070FE00232360DC
:10216C000023636010BD1422206806F06EFBF7E7B5
:10217C0060000020F89501008809002008B5E8B13E
:10218C004368042B0CD101220368D3E8EF1F00290C
:10219C0003D1C3E8E02F0028F7D10BD1002008BDF4
:1021AC0053B100684FF0FF324FF0FF3301F0B4FF32
:1021BC000028F3D00348F2E70348F0E76FF4E0405F
:1021CC00EDE700BFE98FFFFFEA8FFFFF08B5A0B175
:1021DC004368042B0CD100220368D3E8EF1F0129BC
:1021EC0003D1C3E8E02F0028F7D109D1002008BDA6
:1021FC0043B1006802F062F8F8E76FF4E040F6E7EC
:10220C000148F4E70148F2E7E98FFFFFEA8FFFFF8F
:10221C0010B5044618B9164B16485B6898476368A6
:10222C00042B23D0082B21D0CBB92368BBB94FF09A
:10223C00FF324FF0FF3321460F4801F0A5FD08B9DE
:10224C0023681BB90A4B0D485B6898471422002180
:10225C00206806F0FAFA636843F0020363602068B2
:10226C0006F0D0FB636843F00103636010BD00BF50
:10227C0060000020F8950100880900201E960100DE
:10228C0008B5064940231422054806F088FBBDE832
:10229C0008400449044803F049BC00BF88040020EE
:1022AC00880900203C8F0100508F0100094A0A491F
:1022BC00936809685867996708494B6843F08053DD
:1022CC004B60002383F31188BFF36F8F9368986F73
:1022DC00704700BFD4090020D48F010000ED00E04E
:1022EC0013498A684FF030001044EFF3098C80E8F2
:1022FC00F01F202080F31188BFF36F8F0D4F4FF02C
:10230C0000664A6A8A603E60506F0023536780F310
:10231C00118802F1300090E8F01F8CF3098802F16B
:10232C00000004B506F026FABDE804407047000032
:10233C00D409002004ED00E01EF0040F0CBFEFF3F5
:10234C000880EFF30980816911F8021C0229FFD083
:10235C0001B506F013FA01BD40B2002807DB0123DA
:10236C004109034A00F01F00834042F821307047B6
:10237C0000E100E0054B420953F82220012300F054
:10238C001F0003FA00F01040704700BF00E100E0AE
:10239C0038B54D1C072D044608D90D490D48582257
:1023AC0006F069F858210A4806F02EF960B20028A8
:1023BC00ACBF00F16040084B4FEA4515EDB2ABBF26
:1023CC0000F5614000F00F0080F800531D5438BD3B
:1023DC004B9601009691010014ED00E042F8203C70
:1023EC00009B0B4942F81C3C019B21F0010142F877
:1023FC00183C029B42F8081C42F8143C4FF08073C6
:10240C0042F8043C0023203A02654367704700BF42
:10241C0047850100084B9860436E83F30B88104688
:10242C0081F30988002163B681F31188BFF36F8FA4
:10243C000022002306F081F8D40900200149102263
:10244C000A60704710ED00E072B6404080F31188CE
:10245C00BFF36F8FBFF34F8F30BF62B6BFF36F8F79
:10246C00704700BF72B6494081F3118820BF80F3DA
:10247C00118862B6704700BF37B505460C46C9B126
:10248C008B6810480093D1E90023452106F0CFF862
:10249C00636945210093D4E903230B4806F0C7F880
:1024AC004521E269094806F0C2F84521A2690848AD
:1024BC0006F0BDF82146284603B0BDE8304001F0D7
:1024CC001BBB00BF81960100B5960100E996010087
:1024DC00FD96010030BFFFF7FDBF00BF0B4A08B5EA
:1024EC000B4B22F07F029A60BFF34F8FBFF36F8FBD
:1024FC00D3F8882022F47002C3F8882001F058FB2E
:10250C0002F060FF00F018FB01F076FB0002010006
:10251C0000ED00E001B572B60B4A106A00281EBF30
:10252C000021116206F05FFA62B6EFF30580A0F1AC
:10253C0010004FEAC0000549014409C99847BDE89D
:10254C000140034908470000D4090020408B0100DA
:10255C00952A0100002080F31488BFF36F8F0020B0
:10256C0080F30A8880F30B8806F072FA00200E497B
:10257C000860BFF34F8F0D4880F3088800F0B6FA5F
:10258C00202080F311880A484FF40061401880F332
:10259C000988EFF314800221084380F31488BFF3F9
:1025AC006F8FFFF79BFF000094ED00E028260020C2
:1025BC0028260020EFF30880EFF3098101B572465D
:1025CC0000F07CF901BD00BF10B5244C2448452116
:1025DC0006F02DF8D4F8E820D4F8E430580603D5EA
:1025EC004521204806F023F8D4F8E430D9070BD560
:1025FC0045211D4806F01BF8184AD2F8E43043F088
:10260C00FF03C2F8E43010BDD4F8E4309A0702D5C9
:10261C0045211648EEE7D4F8E4305B0702D5452196
:10262C001348E7E7D4F8E430180702D545211148E0
:10263C00E0E7D4F8E430D90602D545210E48D9E7B5
:10264C00D4F8E4309A0602D545210C48D2E7D4F8E8
:10265C00E4301B06D0D545210948CBE700ED00E05E
:10266C00309701004E970100639701007E9701009F
:10267C00A1970100C1970100E3970100FD970100AC
:10268C001C98010038B5214C4521214805F0CFFF9D
:10269C00A36A9D0103D545211E4805F0C8FFA36A16
:1026AC00DC0103D545211C4805F0C1FF174DAC6A70
:1026BC0014F4801404D04521184805F0B8FF022406
:1026CC00AB6A180303D54521154805F0B0FF0F4D33
:1026DC00AB6A590303D54521124805F0A8FFAB6A34
:1026EC009A0303D54521104805F0A1FF074DAB6AAD
:1026FC00DB0303D545210D4805F099FFAB6A204655
:10270C006FEA03436FEA1343AB6238BD00ED00E0A0
:10271C0034980100519801006998010088980100D3
:10272C00B7980100DA98010004990100239901007F
:10273C0070B5234C06460D462248452105F077FF1F
:10274C00A36AD90403D545211F4805F070FFA36A7D
:10275C001A0503D545211D4805F069FF184CA36ADD
:10276C009B0510D51A48452105F061FFA26BA36AA1
:10277C00180408D54521174805F059FF1EB1A36A66
:10278C0023F40043A3620E4CA36A590503D54521DB
:10279C00114805F04CFFA36ADA050BD545210F480B
:1027AC0005F045FF0020064A936A43F47F43936289
:1027BC00287070BDA36A9B04F4D545210848EFE747
:1027CC0000ED00E0539901006E990100849901001D
:1027DC009C990100BA990100D4990100F499010067
:1027EC00119A010070B52B4C06460D462A4845211E
:1027FC0005F01DFFA36AD80603D54521274805F02F
:10280C0016FFA36A190703D54521254805F00FFFCC
:10281C00204CA36A9A0710D54521224805F007FFE2
:10282C00626BA36A1B0608D545211F4805F0FFFE05
:10283C001EB1A36A23F08003A362164CA36ADE07C1
:10284C0003D54521194805F0F2FEA36A980603D575
:10285C004521174805F0EBFE0E4B9A6AD10602D4BF
:10286C009A6A92070DD59B6ADB060AD51149124864
:10287C0040F24F1205F0FFFD40F24F110D4805F0EC
:10288C00C3FE0020034A936A43F0FF03936228704F
:10289C0070BD00BF00ED00E0459A0100609A010098
:1028AC0084990100989A0100B59A0100D09A010010
:1028BC00119A0100F49A0100969101002DE9F04162
:1028CC005F4B05465F688AB00023C7F3080483F3A7
:1028DC001188BFF36F8F02F07F40B0F17F4F41D171
:1028EC0012F001061ED012F0400602F0080804D0C7
:1028FC00B8F1000F33D1012613E0500758BF294619
:10290C00504B0A6858BF01261344012B98BF0A6C20
:10291C004D48452105F08BFEB8F1000F1CD0EFF3AC
:10292C0089855DB940F2E1324849494805F0A3FD7B
:10293C0040F2E131454805F067FE00254FF00008F4
:10294C00E31E8DF80780092B67D8DFE803F00D5BD9
:10295C005F38576666666663EFF38885E1E70D4678
:10296C001E46DEE71E46DDE7354C4521394805F0AD
:10297C005EFEE36A8DF807809A0704D54521364838
:10298C0005F055FE3CE0E36A5B0039D54521334840
:10299C0005F04DFE94F828302BB101200DF1070104
:1029AC00FFF720FF0DE094F829302BB101200DF139
:1029BC000701FFF7BDFE04E0638D9BB2DBB1FFF7AF
:1029CC0061FE04469DF8073093B92022294602A8DF
:1029DC0005F030FF099B6EB3C3F3080222B96FEA0E
:1029EC0053236FEA43230993204602A9FFF744FDC2
:1029FC000AB0BDE8F081D4F8E4300BB1FFF7E4FD88
:102A0C000024DFE700200DF10701C9E700200DF1DC
:102A1C000701CEE745211248B2E7124917F4F87FB7
:102A2C00114A124808BF0A46A4F11003452105F0CB
:102A3C00FEFDE5E723F4FF7323F00103D3E700BFAA
:102A4C0000ED00E0A6ED05015C9B0100F49A01008D
:102A5C0096910100809B01009C9B0100C29B010090
:102A6C00E69B01002E9B0100439B01000F9C010083
:102A7C00044B5A6942F010025A615A6942F480625E
:102A8C005A61704700ED00E0044B9968586A88421F
:102A9C0003D003494FF080520A607047D4090020DC
:102AAC0004ED00E0BFF34F8F0549064BCA6802F4F2
:102ABC00E0621343CB60BFF34F8F00BFFDE700BF55
:102ACC0000ED00E00400FA05002318460649D1F891
:102ADC009020C2F30722934200DB7047C1F8983074
:102AEC00C1F8A0000133F6E700ED00E010B572B6B6
:102AFC00002484F31388FFF7E7FF23464FF0FF30E1
:102B0C000C4A03F120010133102B42F82100F8D1BB
:102B1C0000234FF0FF30074A03F160010133102B03
:102B2C0042F82100F8D162B6BFF34F8FBFF36F8F1D
:102B3C0010BD00BF00E100E0002320210348C218B3
:102B4C000133412B82F80013F9D1704700E100E00A
:102B5C00064B9B68834207D1EFF3058323B1044AEC
:102B6C00536843F08053536002F098BBD4090020A3
:102B7C0000ED00E082680C4B9A60036883F3888850
:102B8C00436883F38988027B02F00101EFF394839D
:102B9C0023F00303920748BF43F0020309B143F04B
:102BAC00010383F39488704700ED02E0084AD36870
:102BBC0048B123F400531B041B0C43F0BF6343F4D4
:102BCC000033D36070479BB243F40053F5E700BF6A
:102BDC0000ED00E0084AD36840B19BB243F4804357
:102BEC0043F0BF6343F40033D360704723F4804356
:102BFC001B041B0CF4E700BF00ED00E0084AD3688F
:102C0C0040B19BB243F0080343F0BF6343F400337D
:102C1C00D360704723F008031B041B0CF4E700BFC0
:102C2C0000ED00E0034AD2F88C3043F44063C2F864
:102C3C008C30704700ED00E00A4BD3F8D02020B167
:102C4C0042F00102C3F8D020704722F00102C3F811
:102C5C00D020D3F8D02011B142F00202F2E722F0DA
:102C6C000202EFE700ED00E01FB5094C094A2346CC
:102C7C000121094800F024F900230393074B01219B
:102C8C00E41A01A80193029400F036F904B010BDC7
:102C9C000000012000000020608F010020010020B6
:102CAC0010B50B680C7A23F01F0304F01F021A43B3
:102CBC00CB68640923F01F03054943EA440343F03E
:102CCC000103C1F89800C1F89C20C1F8A03010BDD8
:102CDC0000ED00E030B54B680C6885B00A894D8971
:102CEC000094013B24F01F04234402F01F0242EA2B
:102CFC00451223F01F030F2804468DF80820039378
:102D0C0009D902464521064805F091FC6FF01504DF
:102D1C00204605B030BD6946FFF7C2FFF8E700BF9B
:102D2C002B9C01002DE9F04F8946144606464FF0C6
:102D3C000008544D85B0C84527DAD6F804A0BAF17E
:102D4C00000F45D0BAF11F0F18D91AF01F0F15D16B
:102D5C00D6F800B01BF01F0F10D1584605F019FD26
:102D6C0007460AEB0B00013805F013FD874210D023
:102D7C006FF015073A464521434802E0424645218B
:102D8C00424805F054FC6FF01504204605B0BDE830
:102D9C00F08F17F1160FEDD0631EBB42EADBC5F8BE
:102DAC009870D5F89C10C5F89870D5F8A03021F023
:102DBC001F0143F01F0BD6E900321A44994202F16D
:102DCC00FF3A1DD1D34507D13146F8B2FFF782FF48
:102DDC0008F101080C36AEE73146C5F89870D5F805
:102DEC009C3022F01F0203F01F031343C5F89C30E4
:102DFC00E0B2FFF76FFF10F1160FC4D0441CE7E7E9
:102E0C00C5F89870D5F8A020013B23F01F0302F001
:102E1C001F021343D3453146E0B2C5F8A030E8D0C9
:102E2C00FFF758FF10F1160FADD0C5F89870D5F814
:102E3C009C209DF808300BF1FF3B62F304038DF8E6
:102E4C000830D5F8A0309DF808205B0863F34712D2
:102E5C00D6E900310B44009323F01F0301305B448F
:102E6C00A3EB0A03C0B223F01F030F288DF8082030
:102E7C00039303D902464521054882E76946FFF7CB
:102E8C000FFFBBE700ED00E07E9C0100569C0100AB
:102E9C002B9C01000522044BC3F89420BFF34F8FE9
:102EAC00BFF36F8F704700BF00ED00E0BFF35F8F83
:102EBC000022024BC3F89420704700BF00ED00E0E5
:102ECC0010B50A4C2278FFF72DFF207016300CD16C
:102EDC000749084840F2051205F0CDFABDE810404C
:102EEC0040F20511024805F08FBB10BD24130020E1
:102EFC00A69C0100969101002DE9F74F304D8A46B2
:102F0C0006464FF00008AB462E4FD04502DB03B00F
:102F1C00BDE8F08FD6F80490B9F1000F4AD03168B3
:102F2C000846019105F035FC0199044609EB0100B6
:102F3C00013805F02EFC84424FF01402224B13D0C2
:102F4C0002FB08F36FF015024BF8032040F2151248
:102F5C001E491F4805F08FFA40F215111B4803B0AB
:102F6C00BDE8F04F05F050BB14F1160F2C60EDD0FE
:102F7C001978A142EADD02FB08B0C7F89840C7F8FF
:102F8C009840D7F89C4000F10801007B64F30400E2
:102F9C000871D7F8A0000C79400860F347140C7145
:102FAC00D7F89C1021F01F016960D7F8A01021F010
:102FBC001F01296108F1010814350C36A5E700BF83
:102FCC00A809002000ED00E024130020A69C0100BD
:102FDC009691010038B51D4D2C68102C0DD94FF46D
:102FEC009E721B491B4805F046FA19484FF49E7116
:102FFC0005F00AFB4FF0FF3038BD0020FFF756FFFD
:10300C00154B164AC3F8C02084420CD1144B1C70CB
:10301C00FFF740FF104BD3F89030C3F30723102B6E
:10302C0008D10020E8E7696801EB0011FFF738FED2
:10303C000130E9E74FF4D0720549064805F01BFA58
:10304C004FF4D071024805F0DFFAEAE76C8F01000B
:10305C00A69C01009691010000ED00E0AAFF44003F
:10306C0024130020014B1860704700BF280000207B
:10307C0070B5124800F016FD0446E0B1436886684E
:10308C001B680569002B0ADB0D490E484FF43C7296
:10309C0005F0F1F94FF43C71094805F0B5FA2B68CD
:1030AC004FF4206223F000432B601F21204633682D
:1030BC009847002070BD6FF01200FBE7EC9C0100FC
:1030CC00F39C010096910100026810B55309044667
:1030DC0004D14FF0FF33D340DB070AD40E490F481D
:1030EC004FF4057205F0C7F94FF405710A4805F065
:1030FC008BFA236803F01F025B0922600AD0064991
:10310C00064840F2192205F0B6F940F2192102489E
:10311C0005F07AFA024810BD1D9D01009691010040
:10312C0000258450F0B54B79012B2AD0032B25D1E7
:10313C0010268B79032B21D1CC792CB1012C1DD1EC
:10314C0043685B689B0719D00A7912B1022A15D122
:10315C000E220B684568B3F5164F2D6865D02DD837
:10316C00B3F5165F64D016D8B3F5966F62D00AD853
:10317C00B3F5967F61D0B3F5167F61D06FF0850003
:10318C0052E00026D5E7B3F5166F5CD0B3F5965F29
:10319C00F4D1374B3CE0B3F5E14F57D007D8B3F53A
:1031AC00615F55D0B3F5964FE8D1324B30E047F61E
:1031BC001227BB42E2D14FF4000329E0B3F5613F83
:1031CC0048D013D8B3F5963F47D009D84DF6C02751
:1031DC00BB4244D0B3F5614FD0D14FF46B0317E031
:1031EC00B3F5E13FCAD14FF0EB7311E0B3F5612FAA
:1031FC0038D008D8204FBB4237D0B3F5E12FBDD122
:10320C004FF0E86304E01D4FBB42B7D14FF0805341
:10321C00C5F82435036934432243043303C9C5F884
:10322C006C2583E803000020F0BD4FF41D03EFE78D
:10323C00134BEDE74FF49E23EAE74FF4A033E7E797
:10324C004FF41C33E4E74FF41D23E1E70D4BDFE7AC
:10325C000D4BDDE74FF06C73DAE70C4BD8E74FF40E
:10326C006503D5E74FF07063D2E74FF08063CFE78B
:10327C0000B0130000A04E0090D0030040420F009D
:10328C000050270000C0750000F03A0000903A0191
:10329C00F8B505460F46066905F09DFBB0B92C4BF9
:1032AC001B789BB16424686805F0FDFAF8B901201D
:1032BC0005F068FB013CF6D10021212001F0B8FF9C
:1032CC00F0E784F31188BFF36F8FF5E74FF020031D
:1032DC00EFF3118483F31188BFF36F8F686805F0E7
:1032EC00E2FA88B984F31188BFF36F8FEEE74FF0E1
:1032FC002003EFF3118483F31188BFF36F8F686899
:10330C0005F0D1FA0028DCD0012206F8107F69689C
:10331C000B68C3F84465C3F848250022C3F8202184
:10332C00D3F82001C3F85821D3F858214A68D206A3
:10333C0041BF0822C3F800254FF48002C3F80423D0
:10334C0001229A6084F31188BFF36F8FF8BD00BF20
:10335C002513002043682DE9F3471C6800230769F7
:10336C00C4F800350B683860064601A80D46019379
:10337C00FFF7AAFE0123019A934083602B6801A8F2
:10338C000193FFF7A1FE0322019B803340F8232019
:10339C006B68591C08D001A80193FFF795FE0C220D
:1033AC00019B803340F82320D5E90023C4F80C2579
:1033BC00C4F81435AB685A1C08D001A80193FFF768
:1033CC0083FE0C22019B803340F82320EB68581CB1
:1033DC0011D001A80193FFF777FE0123019A9340C6
:1033EC008360EB6801A80193FFF76EFE0322019B3B
:1033FC00803340F823203169D5E902323046C4F8D5
:10340C0008250431C4F81035FFF78CFE804680B9CE
:10341C0073685B6819073AD507F1120000F0F6FAE9
:10342C00304B984209D045212F4805F000F96FF038
:10343C000408404602B0BDE8F08714F5907A97F87E
:10344C0012900AD129492A484FF4F67205F013F864
:10345C004FF4F671254805F0D7F849F0004914F1FE
:10346C000C0FCAF880900AD1204921484FF4F97208
:10347C0005F001F84FF4F9711C4805F0C5F801236B
:10348C00C4F88C90BA7C93401A4AC2F804350823CD
:10349C00C4F800356B6801330CD00023C4F810312C
:1034AC00D4F8103107F11103C4F834350123C4F8F2
:1034BC0038352360736810375B681A075CBF4FF4AC
:1034CC008072C4F80423DB0644BF4FF48003C4F8B5
:1034DC0004330023C4F84475C4F848350123A360B1
:1034EC00E360A6E70000AD0B509D0100749D010048
:1034FC00969101000070015030B585B06C460546C0
:10350C00084B0FCB84E80F00002201210A20FEF7A4
:10351C003FFF0A20FEF720FF21462846FFF71AFF3F
:10352C0005B030BDBC8D010030B585B06C4605468C
:10353C00084B0FCB84E80F00002201210820FEF776
:10354C0027FF0820FEF708FF21462846FFF702FF59
:10355C0005B030BDCC8D0100F7B50F46164640B90D
:10356C0018491948242204F086FF2421154805F037
:10357C004BF847B913491448252204F07CFF252148
:10358C00104805F041F84FF4806500246FF01500E9
:10359C00A64201D803B0F0BD331BB3F5806F38BF22
:1035AC001D46002001AB2A46391902F047FA019B4F
:1035BC00AB4203D10028EDD12C44E9E76FF01500A4
:1035CC00E8E700BFC39D0100969101000348452127
:1035DC0008B505F02CF80020FFF764FAFE9D0100F9
:1035EC002DE9F0430025204C204E54F8048CDFF8D4
:1035FC00809085B0A84503D8002005B0BDE8F083C5
:10360C00636A96E807001F6801AB83E807000C2289
:10361C001946384605F0E7F888B987B1636A21691D
:10362C001B681A6991420AD19A69A169914206D81C
:10363C00E169914203D962695B699A430AD0276AAE
:10364C0067B10C4804F017FF404080F311884FF02D
:10365C00040002DFE36801351C44CBE7484604F064
:10366C000AFF636A1F60F5E73C040100DC8D010072
:10367C00499E0100209E01004E4A08B5D2F8D03078
:10368C0043F00203C2F8D0304FF47F03D3F830314B
:10369C00092B01BF4FF050230022C3F81421C3F8AB
:1036AC00182105F060F928B10122434BC3F8382AE0
:1036BC00C3F878254FF47F03D3F83021092A07D1BA
:1036CC00D3F83431012B1EBF01223B4BC3F87825B4
:1036DC0005F049F918B10E22384BC3F8E42E4FF41B
:1036EC007F03D3F83031092B06D10022324BC3F8BB
:1036FC000C270122C3F810270022D30003F57F0307
:10370C00D3F80013013108D0D3F800130132D3F8E9
:10371C000433B2F5807F0B60EFD1294BDA69D10706
:10372C003AD5284BD3F80024012AFBD1C3F8042541
:10373C00D3F80024012AFBD1214BDA69D20708D532
:10374C00DA69204922F00102DA61D1F80024012A59
:10375C00FBD11A6A01320AD11A6A22F0FF0242F036
:10376C0020021A62174AD2F80034012BFBD1002236
:10377C00144BC3F80425D3F80024012AFBD1BFF362
:10378C004F8F0C49104BCA6802F4E0621343CB60B4
:10379C00BFF34F8F00BFFDE71B6A0133C1D0054A51
:1037AC00D2F88C3043F44063C2F88C30074B084A93
:1037BC001A6008BD00ED00E00040005000A003506E
:1037CC000080FF00009003500400FA055400002014
:1037DC000090D00310B5044640B909490948B522F8
:1037EC0004F049FEB521064804F00EFF064B1A7989
:1037FC0022B9012205481C601A7110BD0448FCE76F
:10380C007C9E010096910100C80900200000AD0BC0
:10381C000C00AD0B08B50B4B1B7943B90A490B488F
:10382C00CE2204F028FECE21074804F0EDFE052040
:10383C00FEF7A0FD20B9BDE808400520FEF78CBDC1
:10384C0008BD00BFC80900207C9E010096910100B4
:10385C00254B10B51B79044653B9244924484FF421
:10386C00857204F008FE4FF48571204804F0CCFEFC
:10387C0074B1012C2DD01D491D484FF49E7204F0DB
:10388C00FAFDBDE810404FF49E71184804F0BCBE20
:10389C004FF05022D2F81834D2F81814C90312D5AC
:1038AC0003F00303022B0ED1C2F818354FF050234E
:1038BC000022C3F80421D3F804210222C3F8042304
:1038CC0001229A6010BD4FF050230122C3F8182535
:1038DC00ECE74FF050230022C3F80021D3F800216D
:1038EC00C3F804431C60EDE7C80900207C9E01006E
:1038FC009691010038B5284B04461B7953B92749DA
:10390C00274840F2431204F0B6FD40F2431123481D
:10391C0004F07AFE74B1012C23D02049204840F2E7
:10392C005F1204F0A8FDBDE8384040F25F111B485F
:10393C0004F06ABE4FF050250223C5F80833C5F8D1
:10394C000441D5F80431012342F21074EB60D5F830
:10395C001834DB031FD5012005F014F8013CF6D117
:10396C0019E04FF050250023C5F80843C5F8003185
:10397C00D5F800316C6042F21074D5F80C34D5F8DF
:10398C000C2403F00103D20305D523B1012004F06C
:10399C00F9FF013CF1D138BDC80900207C9E010023
:1039AC00969101004FF05023D3F8002110B552B17D
:1039BC000020C3F80001D3F800210122C3F808232A
:1039CC00114B1B6898474FF05023D3F804218AB150
:1039DC000022C3F80421D3F80421D3F81824D3F817
:1039EC00181402F00302012A4FF0020103D1C3F8AC
:1039FC0018159A6010BDC3F80813034B0120BDE8DD
:103A0C0010401B68184700BFC8090020F0B54FF0E4
:103A1C002003EFF3118683F31188BFF36F8F0E49E8
:103A2C000C68E3439BB2A3B10022D5B223FA05FC88
:103A3C001CF0010F174602F10102F6D00123AB4036
:103A4C002343077005480B6086F31188BFF36F8F13
:103A5C00F0BD0348F8E700BFD00900200000AD0B13
:103A6C000200AD0B0E4B70B553F82040013053F8EB
:103A7C002060A64200D870BDD4E90035284698478E
:103A8C0065B1EB6830B10028B8BF4042FF28A8BF31
:103A9C00FF2018705A7842F001025A700834E8E797
:103AAC00C08F010070B5054610B90024204670BDCA
:103ABC000378002BF9D00E4C0E4EB44208D10C4CAE
:103ACC00B442F2D0204604F060FF50B91834F7E746
:103ADC00204604F05AFF10B12368AB42E6D01834EC
:103AEC00EBE72846216804F072FE0028EED1DDE7F2
:103AFC00C88A0100408B0100F7B504460E464FF012
:103B0C002003EFF3118783F31188BFF36F8F01F05C
:103B1C00BFFB0022042C98BF1D4B054694BF53F8E5
:103B2C0024301C4B0092452122461B4804F07FFD9B
:103B3C003EB1F369C3F308031BB14521174804F0E8
:103B4C0076FD35B1284604F04CFF034608B10278E7
:103B5C0002B9134B2A464521124804F068FD314640
:103B6C002046FFF733FD042C08D10F490F488F2254
:103B7C0004F081FC8F210C4804F046FD87F311887A
:103B8C00BFF36F8F284603B0BDE8F040FEF7E0BFEF
:103B9C00D88F0100B99E0100CF9E0100FC9E010050
:103BAC00C79E0100229F01003F9F010096910100DA
:103BBC000248034A0021121A04F047BE20010020DB
:103BCC00E4140020012208B5094B02201A70FFF7FB
:103BDC0049FF01F09BFE0320FFF744FF00F0D4F9EE
:103BEC0004F02FFC034A137B23F00103137308BD6D
:103BFC0025130020A00100202DE980483F4BA7B0E1
:103C0C0003F5006787F3088883F30A880024E02310
:103C1C003B4D4FF0010B85F82230EC772C766C760F
:103C2C00AC76EC766B6A374E43F4E0236B626B6ACE
:103C3C00DFF8D4A043F400236B62AC63EB68DFF8CD
:103C4C00CC809BB243F0BF6343F40833EB60FEF7C8
:103C5C000FFFFEF7F3FB4FF0FF33AB62EB62FFF7A6
:103C6C00B9F9FFF701F840F20113294DADF82430F2
:103C7C0006ABAB60CDE91F4404F086FE2046FFF78F
:103C8C00F1FE0120FFF7EEFE01F0B8F9214B6E6258
:103C9C004FF480522049059330465346CDE9034BEF
:103CAC00CDE90144009400F01BF9737B814623F0AD
:103CBC0004033046737300F021FD0F234FF4A07200
:103CCC00CDE902431549164B4046CDE904B4CDE984
:103CDC00005400F005F998F80D30524623F0040317
:103CEC0088F80D30494605F118033046C5E906330E
:103CFC00C5F80C802C756F60FEF78CFB2826002015
:103D0C0000ED00E0A0010020D13B010020010020CB
:103D1C00D4090020AB9F010028160020E8140020D5
:103D2C00D5400100F8B5144C144D154EAC4208D9D1
:103D3C00314614483C2204F09EFB3C21304604F0F2
:103D4C0063FCAC4201D30020F8BDD4E9041242EA72
:103D5C00010313F003030BD1E068A361834201D18B
:103D6C002034E3E7A76901331760A2610A44F5E741
:103D7C006FF01500E8E700BFD0000020D000002055
:103D8C00B39F0100969101002DE9F74304460D46BF
:103D9C0090461F4600F108064FF02003EFF31189FF
:103DAC0083F31188BFF36F8F304600F069F940B987
:103DBC001F492048812204F05EFB81211C4804F03D
:103DCC0023FC304600F078F9A369C3B12B601B6863
:103DDC00A361E3690133E3610024304600F05EF92E
:103DEC0040B913491348AC2204F045FBAC211048F0
:103DFC0004F00AFC89F31188BFF36F8F13E058EAC3
:103E0C00070203D16FF00B042B60E6E7224649460C
:103E1C003046CDE9008700F093FE044618B9064BF6
:103E2C009B685B692B60204603B0BDE8F08300BF44
:103E3C00D091010096910100D40900202DE9F041A8
:103E4C0004460D4600F108064FF02003EFF31187EE
:103E5C0083F31188BFF36F8F304600F011F940B92E
:103E6C001D491E48812204F006FB81211A4804F0EA
:103E7C00CBFB304600F020F9D4F81880B8F1000FD5
:103E8C000FD1204601F07AF858B12A68C0F8788032
:103E9C00426100F033FC39463046BDE8F04100F099
:103EAC0063BC2B68A26930461A602B68A361E36976
:103EBC00013BE36100F0F2F840B907490748AC2236
:103ECC0004F0D9FAAC21044804F09EFB87F3118866
:103EDC00BFF36F8FBDE8F081D09101009691010086
:103EEC002DE9F04385B0DDF83C900446B9F10F0F95
:103EFC000F46154698462ED11F4B98452FD104F1ED
:103F0C005803C4E91633109B002623730423E81DC1
:103F1C0063730E9B20F00700C4E91970C4E90666B0
:103F2C00A66084F80E90E673E66602930D9B3D182E
:103F3C0001930C9B2A460093394643462046FEF7D4
:103F4C004DFA0E4B66659B6803B11B6F28462367C1
:103F5C0005B0BDE8F08309F110031E2BCFD940F258
:103F6C0005220749074804F086FA40F20521044867
:103F7C0004F04AFBC3E700BFD5400100D409002080
:103F8C00D89F0100969101002DE9F043374C384D34
:103F9C00384F87B0AC4226460AD93946364840F2EB
:103FAC00D52204F068FA40F2D521384604F02CFBF7
:103FBC00AE4204F130041BD300F04EFC2B4C2D4EC2
:103FCC00DFF8B480DFF8B490AC420AD931464046F1
:103FDC004FF43D7204F04FFA4FF43D71304604F04B
:103FEC0013FBAC4220D307B0BDE8F04300F088BC13
:103FFC0054F8043C059354F8103C049354F8143CC6
:10400C00039354F8183C029354F81C3C019354F855
:10401C00203C009354E90A2354E90C01FFF760FF9C
:10402C0054F8303C5E65B5E7636A5A1C0FD04FF408
:10403C00004240F2E730002123EAE373C3FB0201A4
:10404C0051EAC333276804D1384600F0C3FB30343F
:10405C00BAE74FF47A720023FCF7EAF902460B46F2
:10406C0007F11800494601F015FAF0E7D0000020DE
:10407C00D0000020D89F010096910100F94E01005C
:10408C00006838B1044B00F003001B7DC01A18BF48
:10409C000120704701207047D4090020054A0346CF
:1040AC00117D92680A4301680020914204BF186098
:1040BC0001207047D4090020024B1A7D9B681343E2
:1040CC0003607047D4090020104C08B5A36893F91D
:1040DC000E30002B08DA0E490E48462204F0CBF9BC
:1040EC0046210B4804F090FA4FF02002EFF31183B5
:1040FC0082F31188BFF36F8F01F0B6FA2062FDF7DF
:10410C0051FA0028F0D1FEF79FF9EDE7D409002011
:10411C00FB9F0100969101002DE9F34104461746DF
:10412C001E46EFF3058343B15F496048652204F0F6
:10413C00A2F965215C4804F067FA4FF02003EFF315
:10414C00118883F31188BFF36F8F5948FFF798FFDD
:10415C0040B958495548812204F08DF981215548C0
:10416C0004F052FA5248FFF7A7FFE368524AE3B152
:10417C00A0689168884233D057EA060332D14C4884
:10418C00FFF78CFF40B94B494848AC2204F073F957
:10419C00AC21484804F038FA88F31188BFF36F8FCC
:1041AC006FF00F0002B0BDE8F081916891F90E102C
:1041BC000133E36093683E482161A360FFF76EFF13
:1041CC0040B93C493948AC2204F055F9AC21394886
:1041DC0004F01AFA88F31188BFF36F8F0020E1E71F
:1041EC002169E5E791F90E1090F90E306FF07E021F
:1041FC009942A8BF19469142B8BF11468B4249DD7E
:10420C0004F0F8FB054622464146CDE900762848E5
:10421C0000F096FC0028E1D04FF02003EFF311865C
:10422C0083F31188BFF36F8F2148FFF729FF40B943
:10423C0020491E48812204F01EF981211D4804F0FA
:10424C00E3F91B48FFF738FF236821699C420AD029
:10425C004BB193F90E309942A8BF19466FF07E030B
:10426C009942B8BF1946A06804F0C4FBA0B99DB927
:10427C000F48FFF713FF40B90E490C48AC2204F06D
:10428C00FAF8AC210B4804F0BFF986F31188BFF3A0
:10429C006F8F05E00025B6E73146054800F064FA5B
:1042AC006FF00A007EE700BF1CA001009691010090
:1042BC00040A0020D0910100D409002038B504462E
:1042CC00EFF3058343B143494348C72204F0D3F8C5
:1042DC00C721404804F098F9A368002B74D03F4DD7
:1042EC00AA68934273D1E36843B93A493A48DF224A
:1042FC0004F0C1F8DF21374804F086F9EFF30583A9
:10430C0043B137493448FD2204F0B5F8FD21344857
:10431C0004F07AF9AB68DB7B012B08D130492E48CD
:10432C00FE2204F0A8F8FE212D4804F06DF9AA68CD
:10433C00D37B013BD373E368012B05D9013BE360CD
:10434C0000F0DEFA002038BD4FF02003EFF31185AA
:10435C0083F31188BFF36F8F2248FFF791FE40B9AA
:10436C0021491D48812204F086F881211E4804F061
:10437C004BF91C48FFF7A0FE2169A06804F03AFB3A
:10438C00204600F0FBFDA06058B190F90E20226190
:10439C000022826700F0B2F92946124800F0E4F9D5
:1043AC00CEE7E0600F48FFF779FE40B90E490A48A6
:1043BC00AC2204F060F8AC210B4804F025F985F32D
:1043CC001188BFF36F8FBBE76FF01500BBE74FF0A1
:1043DC00FF30B8E71CA0010096910100D409002021
:1043EC003EA00100040A0020D091010038B504461B
:1043FC004FF02003EFF3118583F31188BFF36F8F18
:10440C001248FFF73DFE40B911491248812204F0D1
:10441C0032F881210E4804F0F7F80C48FFF74CFEF7
:10442C00204600F0ABFD48B10022826700F066F92F
:10443C002946BDE83840054800F096B9D4E9023267
:10444C009A4218BF0133A360F2E700BF080A0020AC
:10445C00D091010096910100F7B5044617461D4610
:10446C00EFF305835BB152EA050308D02B492C48C6
:10447C00792204F000F87921284804F0C5F84FF0AF
:10448C002003EFF3118683F31188BFF36F8F254858
:10449C00FFF7F6FD40B924492148812203F0EBFFD8
:1044AC008121214804F0B0F81E48FFF705FEA368EF
:1044BC00ABB1013B1B48A360FFF7F0FD40B91A49B3
:1044CC001748AC2203F0D7FFAC21174804F09CF836
:1044DC0086F31188BFF36F8F002003B0F0BD57EA4D
:1044EC00050313D10F48FFF7D9FD40B90E490C480D
:1044FC00AC2203F0C0FFAC210B4804F085F886F326
:10450C001188BFF36F8F6FF00F00E6E7224631463C
:10451C00CDE90075034800F013FBDEE769A001004C
:10452C0096910100080A0020D091010010B5084CAA
:10453C0023685BB1FDF796FB03462068054A0344EC
:10454C000021BDE81040136101F0C4B810BD00BFDC
:10455C00140A0020D409002038B5144C234653F813
:10456C00285F9D4200D005B9E568A36820B1A36817
:10457C00AB4217D12B4613E043B90D490D488122AC
:10458C0003F079FF81210A4804F03EF8A3685A7BB6
:10459C00D206ECD1AA69002AE9D1DA897F2AE6D9B8
:1045AC00636238BDFFF7C2FFE4E700BFD409002007
:1045BC0089A001009691010070B590F90D20044678
:1045CC00002A437B3BDBDA0639D18269002A36D1DB
:1045DC0063F07F0343731A4B98420AD119491A4866
:1045EC0040F2A63203F047FF40F2A631154804F022
:1045FC000BF8164A104650F8283F83421DD1D16A59
:10460C00C4E900010C60D46212E08B42F8D01B6844
:10461C00002BF5D094F90E6093F90E50AE42F4D005
:10462C00AD1B002DF1DD5A68C4E9003214605C60EA
:10463C000020BDE87040FFF78FBFD16AE8E770BD7E
:10464C002001002089A0010096910100D4090020CE
:10465C002DE9F04104460D464FF02003EFF311888D
:10466C0083F31188BFF36F8F1E48FFF709FD40B924
:10467C001D491E48812203F0FEFE81211A4803F0D9
:10468C00C3FF00261748FFF717FD4FF4004740F211
:10469C00E73031464FF47A720023E4FB0701FBF755
:1046AC00C7FEB44202DD0228B8BF0220104B1E61C7
:1046BC00104B1860104B1D60FFF738FF0948FFF7CF
:1046CC00EDFC40B908490948AC2203F0D4FEAC21FA
:1046DC00054803F099FF88F31188BFF36F8FBDE88D
:1046EC00F08100BF180A0020D091010096910100C2
:1046FC00D4090020140A0020100A002038B5044602
:10470C004FF02003EFF3118583F31188BFF36F8F04
:10471C001248FFF7B5FC40B911491248812203F049
:10472C00AAFE81210E4803F06FFF0C48FFF7C4FC72
:10473C002046FFF741FF0948FFF7B0FC40B9084994
:10474C000848AC2203F097FEAC21054803F05CFF4F
:10475C0085F31188BFF36F8F38BD00BF180A002096
:10476C00D09101009691010010B503460C46C1B9D9
:10477C00EFF30582AAB9144A516A9268914210D09B
:10478C00FFF78CFC40B911491148C32203F073FEAA
:10479C00C3210E4803F038FFBDE810400020FDF7A0
:1047AC0085BD1846FFF77AFC40B908490848AC2289
:1047BC0003F061FEAC21054803F026FF84F3118859
:1047CC00BFF36F8F10BD00BFD4090020D091010042
:1047DC009691010038B504464FF02003EFF3118594
:1047EC0083F31188BFF36F8F1848FFF749FC40B96A
:1047FC0017491848812203F03EFE8121144803F02A
:10480C0003FF1248FFF758FC637B5A0711D40F487B
:10481C00FFF744FC40B90E490E48AC2203F02BFEC6
:10482C00AC210B4803F0F0FE85F31188BFF36F8FBA
:10483C0038BD23F0040320466373FFF7BDFE294601
:10484C00BDE838400148FFF78FBF00BF180A0020B1
:10485C00D09101009691010038B54FF02003EFF391
:10486C00118583F31188BFF36F8F2048FFF708FC85
:10487C0040B91F491F48812203F0FDFD81211C48CE
:10488C0003F0C2FE1948FFF717FCEFF3058343B1A1
:10489C0019491848FD2203F0EEFDFD21164803F0DE
:1048AC00B3FE164CA368DB7B012B08D112491148CF
:1048BC00FE2203F0E0FDFE210F4803F0A5FEA268E6
:1048CC00D37B013BD3730948FFF7E8FB40B9084998
:1048DC000848AC2203F0CFFDAC21054803F094FE50
:1048EC0085F31188BFF36F8F38BD00BF180A002005
:1048FC00D0910100969101003EA00100D409002046
:10490C0038B54FF02003EFF3118583F31188BFF313
:10491C006F8F2448FFF7B4FB40B923492348812209
:10492C0003F0A9FD8121204803F06EFE204C1D48A8
:10493C00FFF7C2FBA368DB7B53B91E491B484FF43E
:10494C00517203F098FD4FF451711A4803F05CFE5C
:10495C00EFF3058353B11749144840F2453203F085
:10496C008AFD40F24531134803F04EFEA268002048
:10497C00D37B0133D373FFF7EFFD0A48FFF78EFBB0
:10498C0040B909490948AC2203F075FDAC21064831
:10499C0003F03AFE85F31188BFF36F8FBDE8384002
:1049AC0004F043B8180A0020D09101009691010040
:1049BC00D409002089A001000B4B10B599420C467C
:1049CC000AD10A490A4840F2B53203F054FD40F2CC
:1049DC00B531064803F018FED4E9003213605A6072
:1049EC000023C4E9003310BD2001002089A0010080
:1049FC009691010010B590F90D200446002A437BD6
:104A0C0006DA03F07F03014643730648FFF7D4FF31
:104A1C00054B9868031B58425841BDE81040FFF7FE
:104A2C009BBD00BFFC090020D409002038B504460A
:104A3C000D46FFF7DFFF637B43F0020363735DB347
:104A4C00164BA5609C420AD11549164840F2A63275
:104A5C0003F011FD40F2A631114803F0D5FD2B688F
:104A6C009D4209D16B68C4E900531C606C6013E073
:104A7C006A689A42F6D01B68002BF3D094F90E109A
:104A8C0093F90E209142F3D0521A002AF0DD5A68A5
:104A9C00C4E9003214605C6038BD00BF2001002006
:104AAC0089A00100969101002DE9F0410446884649
:104ABC0016461D464FF02003EFF3118783F3118840
:104ACC00BFF36F8F1A48FFF7DBFA40B919491A4840
:104ADC00812203F0D0FC8121164803F095FD144887
:104AEC00FFF7EAFA20464146FFF7A0FF1048FFF710
:104AFC00D5FA40B90F491048AC2203F0BCFCAC21EC
:104B0C000C4803F081FD87F31188BFF36F8FB5F16B
:104B1C00FF3F08BFB6F1FF3F08D032462B4604F1E9
:104B2C0018000649BDE8F04100F0B4BCBDE8F081C6
:104B3C00180A0020D091010096910100F94E010055
:104B4C0038B505460D4B0C4698680D4B1146186050
:104B5C00DDE90423FFF7A8FF2846FFF79FFA40B9C9
:104B6C0008490948C32203F086FCC321054803F019
:104B7C004BFD2046BDE83840FDF798BBD40900201A
:104B8C000C0A0020D09101009691010070B50446EA
:104B9C00183000F02DFD4FF02003EFF3118683F356
:104BAC001188BFF36F8F2048FFF76AFA40B91F498D
:104BBC001F48812203F05FFC81211C4803F024FD77
:104BCC001948FFF779FA94F90D20637B002A06DA6D
:104BDC0003F07F03214617486373FFF7EDFE164D74
:104BEC00637BA86843F010036373031B584258415E
:104BFC00FFF7B2FC0C48FFF751FA40B90B490C48CF
:104C0C00AC2203F038FCAC21084803F0FDFC86F321
:104C1C001188BFF36F8FAB68A34203D1BDE870401E
:104C2C0003F003BF70BD00BF180A0020D091010033
:104C3C0096910100FC090020D409002070B590F970
:104C4C000D200446002A437B06DA03F07F0301465D
:104C5C0043731E48FFF7B0FE637B63F07F036373FF
:104C6C001B4B9C420AD11B491B4840F2A63203F055
:104C7C0002FC40F2A631174803F0C6FC174A104656
:104C8C0050F8283FD16A834207D1C4E900010C6077
:104C9C00D46212E09942F8D01B68002BF5D094F93D
:104CAC000E6093F90E50AE42F4D0AD1B002DF1DD29
:104CBC005968C4E900310C605C609068031B584271
:104CCC005841BDE87040FFF747BC00BFFC0900200D
:104CDC002001002089A0010096910100D409002038
:104CEC0038B504464FF02003EFF3118583F3118898
:104CFC00BFF36F8F2448FFF7C3F940B92349244809
:104D0C00812203F0B8FB8121204803F07DFC1E4872
:104D1C00FFF7D2F91F4B204A98681168884213D1CB
:104D2C00FFF704FC1848FFF7B9F940B917491848C0
:104D3C00AC2203F0A0FBAC21144803F065FC85F316
:104D4C001188BFF36F8F38BD00211160134A1268B0
:104D5C00BAB1C2897F2A14D8427BD20611D1104A2B
:104D6C0090F90E10126891420BDB0E4A904208D05B
:104D7C001A69A24202DCFFF761FFD1E7121B1A612C
:104D8C00D0E70022FBE700BF180A0020D0910100F9
:104D9C0096910100D40900200C0A0020140A00206E
:104DAC00100A002020010020F8B504460D464FF0F3
:104DBC002003EFF3118683F31188BFF36F8F35480F
:104DCC00FFF75EF940B934493448812203F053FBB4
:104DDC008121314803F018FC2E48FFF76DF9637BF5
:104DEC006DB2DA0627D1A2692ABB03F07F03637385
:104DFC0021462B48FFF7E0FD637BA57363F07F032F
:104E0C006373284B9C420AD12749244840F2A632AE
:104E1C0003F031FB40F2A631234803F0F5FB234AA3
:104E2C00104650F8283F834232D1D16AC4E90001C0
:104E3C000C60D46227E0A57300241648FFF72EF906
:104E4C0040B915491548AC2203F015FBAC211248AA
:104E5C0003F0DAFB86F31188BFF36F8F2046F8BDA1
:104E6C008B42E3D01B68002BE0D094F90E7093F9C1
:104E7C000E50AF42F4D0ED1B002DF1DD5A68C4E9A1
:104E8C00003214605C600120FFF766FB0124D4E75C
:104E9C00D16AE8E7180A0020D09101009691010030
:104EAC00FC0900202001002089A00100D409002069
:104EBC00836810B5044653B90A490B4840F24222A4
:104ECC0003F0D9FA40F24221064803F09DFB21463B
:104EDC00A068FFF771FD637B23F00203637300236B
:104EEC00A36010BD89A001009691010070B5044625
:104EFC004FF02003EFF3118683F31188BFF36F8F0C
:104F0C001B48FFF7BDF840B91A491B48812203F032
:104F1C00B2FA8121174803F077FB1548FFF7CCF85C
:104F2C0014F80B3C13F0280F10D154F8103CA4F1DA
:104F3C00180513B12846FFF7BBFF14F80B3C2846A5
:104F4C0023F0140304F80B3CFFF736FB0848FFF77B
:104F5C00A5F840B907490848AC2203F08CFAAC21FB
:104F6C00044803F051FB86F31188BFF36F8F70BDBB
:104F7C00180A0020D09101009691010070B50546E9
:104F8C004FF02003EFF3118683F31188BFF36F8F7B
:104F9C001748FFF775F840B916491748812203F0F6
:104FAC006AFA8121134803F02FFB1148FFF784F8AC
:104FBC002C68A5421AD034B12046FFF779FF04F1D2
:104FCC00180000F015FB0A48FFF768F840B90949CA
:104FDC000948AC2203F04FFAAC21064803F014FB4D
:104FEC0086F31188BFF36F8F204670BD0024EAE76B
:104FFC00180A0020D0910100969101000021044B69
:10500C00084603F12802C3E90A22FFF721BB00BFBF
:10501C00D4090020F8B5EFF3058353B1384939486A
:10502C0040F2A14203F027FA40F2A141344803F0C8
:10503C00EBFA4FF02003EFF3118683F31188BFF3E3
:10504C006F8F3148FFF71CF840B930492D48812249
:10505C0003F011FA81212D4803F0D6FA2C4D2A4881
:10506C00FFF72AF8A96805F128004B7B03F07F03B2
:10507C004B73FFF7A1FCAC68637B63F07F03637336
:10508C00244B9C420AD11E491E4840F2A63203F022
:10509C00F2F940F2A6311A4803F0B6FAAB6A1E4890
:1050AC00EA6A834207D1C4E900021460EC6212E0A0
:1050BC009A42F8D01B68002BF5D094F90E7093F936
:1050CC000E108F42F4D0C91B0029F1DD5A68C4E9D7
:1050DC00003214605C600120FFF73EFA0A48FEF7CC
:1050EC00DDFF40B909490748C32203F0C4F9C321C5
:1050FC00064803F089FA3046BDE8F840FDF7D6B80B
:10510C0089A0010096910100180A0020D09101009D
:10511C00D409002020010020FC0900202DE9F041D9
:10512C0005460E46EFF3058353B13A493A4840F22F
:10513C00BE4203F0A0F940F2BE41364803F064FAD7
:10514C0055EA060303D1FFF765FF00205FE06FF01F
:10515C0001044FF0FF33641B63EB0603012C73F166
:10516C00000302DA03F06BFC44194FF02003EFF359
:10517C00118883F31188BFF36F8F2848FEF780FFE7
:10518C0040B927492448812203F075F9812124482C
:10519C0003F03AFA234F2148FEF78EFFB868224BF2
:1051AC001860FFF727FCB8682A46334618301F49A9
:1051BC0000F070F9BA681948537B43F0100353732D
:1051CC00FEF76CFF40B916491348C32203F053F99C
:1051DC00C321134803F018FA4046FDF767F8BB6883
:1051EC005B7BDB060AD50B490B4840F2DF4203F030
:1051FC0042F940F2DF41074803F006FA03F01FFCC6
:10520C00201A63EB0303012873F100039DDBBDE857
:10521C00F08100BF89A0010096910100180A0020BE
:10522C00D0910100D40900200C0A0020F94E010095
:10523C0038B505460C46EFF3058353B111491248B6
:10524C0040F2EE4203F017F940F2EE410D4803F044
:10525C00DBF9B4F1FF3F08BFB5F1FF3F06D10B4BB3
:10526C009868FFF793FC4FF0FF3038BD2846214675
:10527C00FFF754FF4FF47A7380FB0303C00B40EA33
:10528C004340F2E789A0010096910100D409002067
:10529C00014B9868704700BFD40900202DE9F041FC
:1052AC0004464FF02003EFF3118683F31188BFF30C
:1052BC006F8F3E48FEF7E4FE40B93D493D488122E0
:1052CC0003F0D9F881213A4803F09EF93748FEF7EC
:1052DC00F3FE637B1A0712D53448FEF7DFFE40B9A4
:1052EC0033493448AC2203F0C6F8AC21304803F003
:1052FC008BF986F31188BFF36F8FBDE8F08123F033
:10530C00200242F00801D20938D16173A36813B1AD
:10531C002046FFF7CDFD04F1180000F069F94FF0BD
:10532C00000804F15807A56DBD4200D085BB0120D3
:10533C00FFF712F9204B9B68A342CDD1EFF3058305
:10534C00002BC9D11948FEF7A9FE40B918491948D4
:10535C00C32203F090F8C321154803F055F93046E9
:10536C00FCF7A4FF40F201621449124803F083F8E1
:10537C0040F20161114803F047F9ADE703F05F0318
:10538C0043F0080321460E486373FFF715FBBDE796
:10539C002846FFF78DFD05F1180000F029F9284685
:1053AC00C5F87880FFF708F9BDE700BF180A0020A0
:1053BC00D091010096910100D409002089A0010030
:1053CC00FC09002008B50648064A0749121A03F0E2
:1053DC0031FABDE80840054A0549064803F02ABAE7
:1053EC00000000202001002008A1010000000000A6
:1053FC0008A1010000000020034B1B680BB9FCF74F
:10540C0031BC0020704700BF1C0A0020124B10B5A5
:10541C001C689C4204D1FFF7EFFF6FF0004012E0D4
:10542C00FFF7EAFF0146002CF7D0D4E90402401A3A
:10543C0062EBE173012873F100020BDBB0F1004F5A
:10544C0073F10003E9DA054B1B6913B19842A8BF4D
:10545C00184610BD0020F6E758000020D4090020A3
:10546C000B4A30B552680368904209D043B1D3E976
:10547C000421D0E90445121941EB0501C3E90421CB
:10548C00426813605A600023C0E9003330BD00BF8E
:10549C0058000020B3F1FF3F08BFB2F1FF3F2DE9E8
:1054AC00F04104460E461D461746984600F087808C
:1054BC00036843B1474948485D2202F0DCFF5D2197
:1054CC00444803F0A1F8A6604FF02003EFF31186D7
:1054DC0083F31188BFF36F8F4048FEF7D1FD40B9BD
:1054EC003F493D48812202F0C6FF81213C4803F030
:1054FC008BF83A48FEF7E0FD6FF001034FF0FF3CEC
:10550C00DA1B6CEB0802002A1EDB3649D1E90020BD
:10551C009B1A6CEB0000DA1B60EB0800012A70F19F
:10552C00000301DA01220020C4E904202E4A13688A
:10553C00D2F804C0934208BF002373B9C4E9002C0D
:10554C00CCF8004054601AE0FFF756FF7A1C45F186
:10555C000005121845EBE070E6E7D3E90407D4E93F
:10556C000415814275EB070E2BDA401A596867EB6C
:10557C000507C3E90407C4E900310C605C601368DB
:10558C0093420BD09C4209D1FFF740FF18B1174B47
:10559C001B69834202D00021FCF732FB0F48FEF757
:1055AC007DFD40B90E490C48AC2202F064FFAC21E1
:1055BC000B4803F029F886F31188BFF36F8FBDE811
:1055CC00F081091A65EB07056345C4E90415B5D0EC
:1055DC001B68B2E7ABA0010096910100200A0020E5
:1055EC00D09101002002002058000020D409002096
:1055FC0038B504464FF02003EFF3118583F311887F
:10560C00BFF36F8F1548FEF73BFD40B914491548A1
:10561C00812202F030FF8121114802F0F5FF0F4882
:10562C00FEF74AFD2368B3B12046FFF719FF0024AB
:10563C000A48FEF733FD40B909490A48AC2202F08A
:10564C001AFFAC21064802F0DFFF85F31188BFF387
:10565C006F8F204638BD6FF01504E9E7200A002053
:10566C00D09101009691010038B54FF02003EFF373
:10567C00118583F31188BFF36F8F1348FEF700FD7C
:10568C0040B912491248812202F0F5FE81210F48DF
:10569C0002F0BAFF0C48FEF70FFDFFF7B7FE044609
:1056AC000948FEF7FBFC40B908490948AC2202F056
:1056BC00E2FEAC21054802F0A7FF85F31188BFF389
:1056CC006F8F204638BD00BF200A0020D09101000A
:1056DC009691010070B504460D464FF02003EFF390
:1056EC00118683F31188BFF36F8F1748FEF7C8FC40
:1056FC0040B916491648812202F0BDFE812113489B
:10570C0002F082FF1048FEF7D7FCFFF77FFE01285E
:10571C0007DDA04205DBA0422946A8BF2046FCF7C6
:10572C006FFA0948FEF7BAFC40B908490848AC22A0
:10573C0002F0A1FEAC21054802F066FF86F3118849
:10574C00BFF36F8F70BD00BF200A0020D091010005
:10575C00969101002DE9F8430446FFF7C1FA4FF08A
:10576C002003EFF3118583F31188BFF36F8F424849
:10577C00FEF786FC40B941494148812202F07BFE8C
:10578C0081213E4802F040FF3E4F3B48DFF8F88055
:10579C003E4EFEF791FC3C60D8F800403A68444518
:1057AC004FEAE270D6E9001E0BD054B1D4E9043CA8
:1057BC009A4270EB0C0923DA9B1A6CEB000CC4E9CF
:1057CC00043C002451184EEB0000C6E900103C606C
:1057DC00FFF71CFE2146FCF713FA2748FEF75EFC88
:1057EC0040B926492648AC2202F045FEAC2123489C
:1057FC0002F00AFF85F31188BFF36F8FBDE8F883C1
:10580C0059184EEBE370D31A3B6000220023C6E913
:10581C000010C4E904232046FFF722FE1648FEF7C9
:10582C003DFC40B915491648AC2202F024FEAC21CF
:10583C00124802F0E9FE85F31188BFF36F8F204602
:10584C00A36898474FF02003EFF3118583F3118879
:10585C00BFF36F8F0848FEF713FC40B9074908489F
:10586C00812202F008FE8121044802F0CDFE02489C
:10587C00FEF722FC90E700BF200A0020D091010027
:10588C00969101001C0A00205800002020020020E4
:10589C0070B54FF02003EFF3118683F31188BFF33B
:1058AC006F8F1648FEF7ECFB40B91549154881225D
:1058BC0002F0E1FD8121124802F0A6FE0F48FEF72E
:1058CC00FBFBFCF7CFF9104AD2E9004504190B4851
:1058DC0045F10005FEF7E2FB40B909490948AC2245
:1058EC0002F0C9FDAC21064802F08EFE86F3118849
:1058FC00BFF36F8F2046294670BD00BF200A0020E1
:10590C00D09101009691010020020020024A034927
:10591C00034802F0B0BD00BFF6920100CFA0010019
:10592C00DCA0010010B50C4C236813B10B4B1B68A9
:10593C002BB900F0BBFA30B90122084B1A600123D5
:10594C000020236010BD0138062801D9044810BD81
:10595C00044B53F8200010BD240A0020280A002014
:10596C00FE8FFFFFEC8F0100BFF34F8F0549064BF5
:10597C00CA6802F4E0621343CB60BFF34F8F00BFE1
:10598C00FDE700BF00ED00E00400FA054FF0FE3328
:10599C00002130B4064A074D074C2B60136023607E
:1059AC00064A074CEB606368C2F8001530BC184718
:1059BC000414845000148450081484500000845043
:1059CC0060000020024BD0E90012C3E900127047BE
:1059DC00600000202DE9F043154CDFF85C800028B6
:1059EC0018BF0446206883B040451DD016460D46AE
:1059FC0020464FF4DE7104F1040900F09BFE04F51F
:105A0C008C77484600F03EF9384601F075FA4A4664
:105A1C0038462B460749009601F080FA08B9C4F8BD
:105A2C00008003B0BDE8F083002003B0BDE8F08334
:105A3C0028130020115D0100A5BCC95AF0B50D4C0E
:105A4C000D4E002808BF2046076883B0B7420ED120
:105A5C0000261D4600F58C7033460096144601F066
:105A6C00ADFA002818BF34462C6003B0F0BD0348D3
:105A7C00FBE700BF28130020A5BCC95AE88FFFFF25
:105A8C0010B5044630B16368DB0602D500232360F1
:105A9C00636010BD024B03485B689847F3E700BF97
:105AAC00600000200890010068B143683BB1DB0640
:105ABC0007D5BFF35F8F0023036018467047034878
:105ACC007047034870476FF4E0407047EA8FFFFF60
:105ADC00E98FFFFF10B5044620B10022112322608C
:105AEC00636010BD0148FFF751FFF6E730900100ED
:105AFC00A0B1436883B1DB060CD50122D0E8EF3F9F
:105B0C00C0E8E12F0029F9D1012BF7D0BFF35F8F4B
:105B1C000020704703487047034870476FF4E0401B
:105B2C00704700BFE98FFFFFEA8FFFFF2DE9F041BF
:105B3C00144C0268C368D0E90156C4E90263C4E995
:105B4C000025114B0E684868104DC3E90060D1E97F
:105B5C0002760869D5F81411C3E902761861CB06F0
:105B6C000DD5002305F58870C5E94433C5E96D33BF
:105B7C009047236805F5DA70BDE8F0411847BDE899
:105B8C00F08100BF7000002080000020281300204E
:105B9C002DE9F043202B1D460646894690468BB0D6
:105BAC0026D8DBB202AF31688DF804908DF8053041
:105BBC0006F1040921B9484600F062FE044640B9DA
:105BCC00012302224846336001A900F06DFE044611
:105BDC0038B13846202100F0ADFD20460BB0BDE8B1
:105BEC00F0832A464146484600F05EFE0446F0E744
:105BFC0002AF1946104600233A4601F0D3FA044688
:105C0C000028E6D12023B8461D46CCE7F0B5D0F8E5
:105C1C00F430A7B0002BD8BF02AE2CDD0546002314
:105C2C00D0F8084102AE0193A4F101073146D5F832
:105C3C00F8409022D0F8FC0001ABB7FA87F7A047E8
:105C4C007F09044610B9019B3BB9A7B1304690219E
:105C5C0000F070FD204627B0F0BD014632462846C4
:105C6C00FFF796FF50B9D5F80031019A1344C5F8E7
:105C7C000031002FEAD16FF03C04E7E704462046E0
:105C8C0027B0F0BD70B50025044629461422C0F893
:105C9C00F450F83002F0D9FD164B04F586761B68EB
:105CAC0030469847204640F8045B00F0CFFD124B7D
:105CBC0030461B689847D8B9D4F8F430AB4211DCA5
:105CCC000121202503EB830204EB8202C2F8FC00C5
